{
  "_format": "hh-sol-artifact-1",
  "contractName": "FerryNFTMinter",
  "sourceName": "contracts/FerryNFTMinter.sol",
  "abi": [
    {
      "inputs": [
        {
          "internalType": "address",
          "name": "_ferry",
          "type": "address"
        },
        {
          "internalType": "address",
          "name": "_zoraMediaAddress",
          "type": "address"
        },
        {
          "internalType": "address",
          "name": "_vrfCoordinator",
          "type": "address"
        },
        {
          "internalType": "address",
          "name": "_link",
          "type": "address"
        },
        {
          "internalType": "bytes32",
          "name": "_keyHash",
          "type": "bytes32"
        }
      ],
      "stateMutability": "nonpayable",
      "type": "constructor"
    },
    {
      "anonymous": false,
      "inputs": [
        {
          "indexed": true,
          "internalType": "address",
          "name": "previousOwner",
          "type": "address"
        },
        {
          "indexed": true,
          "internalType": "address",
          "name": "newOwner",
          "type": "address"
        }
      ],
      "name": "OwnershipTransferred",
      "type": "event"
    },
    {
      "anonymous": false,
      "inputs": [
        {
          "indexed": false,
          "internalType": "bytes32",
          "name": "requestId",
          "type": "bytes32"
        }
      ],
      "name": "RandomnessFulfilled",
      "type": "event"
    },
    {
      "anonymous": false,
      "inputs": [
        {
          "indexed": false,
          "internalType": "bytes32",
          "name": "requestId",
          "type": "bytes32"
        }
      ],
      "name": "RequestedRandomness",
      "type": "event"
    },
    {
      "inputs": [
        {
          "internalType": "address",
          "name": "_account",
          "type": "address"
        }
      ],
      "name": "createNFT",
      "outputs": [],
      "stateMutability": "nonpayable",
      "type": "function"
    },
    {
      "inputs": [],
      "name": "ferry",
      "outputs": [
        {
          "internalType": "address",
          "name": "",
          "type": "address"
        }
      ],
      "stateMutability": "view",
      "type": "function"
    },
    {
      "inputs": [
        {
          "internalType": "address",
          "name": "_account",
          "type": "address"
        }
      ],
      "name": "getAccountRandomNum",
      "outputs": [
        {
          "internalType": "uint256",
          "name": "",
          "type": "uint256"
        }
      ],
      "stateMutability": "view",
      "type": "function"
    },
    {
      "inputs": [
        {
          "internalType": "address",
          "name": "_account",
          "type": "address"
        }
      ],
      "name": "mintNFT",
      "outputs": [],
      "stateMutability": "nonpayable",
      "type": "function"
    },
    {
      "inputs": [
        {
          "internalType": "address",
          "name": "_operator",
          "type": "address"
        },
        {
          "internalType": "address",
          "name": "_from",
          "type": "address"
        },
        {
          "internalType": "uint256",
          "name": "_tokenId",
          "type": "uint256"
        },
        {
          "internalType": "bytes",
          "name": "_data",
          "type": "bytes"
        }
      ],
      "name": "onERC721Received",
      "outputs": [
        {
          "internalType": "bytes4",
          "name": "",
          "type": "bytes4"
        }
      ],
      "stateMutability": "nonpayable",
      "type": "function"
    },
    {
      "inputs": [],
      "name": "owner",
      "outputs": [
        {
          "internalType": "address",
          "name": "",
          "type": "address"
        }
      ],
      "stateMutability": "view",
      "type": "function"
    },
    {
      "inputs": [],
      "name": "randomResult",
      "outputs": [
        {
          "internalType": "uint256",
          "name": "",
          "type": "uint256"
        }
      ],
      "stateMutability": "view",
      "type": "function"
    },
    {
      "inputs": [
        {
          "internalType": "bytes32",
          "name": "requestId",
          "type": "bytes32"
        },
        {
          "internalType": "uint256",
          "name": "randomness",
          "type": "uint256"
        }
      ],
      "name": "rawFulfillRandomness",
      "outputs": [],
      "stateMutability": "nonpayable",
      "type": "function"
    },
    {
      "inputs": [],
      "name": "renounceOwnership",
      "outputs": [],
      "stateMutability": "nonpayable",
      "type": "function"
    },
    {
      "inputs": [
        {
          "internalType": "address",
          "name": "newOwner",
          "type": "address"
        }
      ],
      "name": "transferOwnership",
      "outputs": [],
      "stateMutability": "nonpayable",
      "type": "function"
    },
    {
      "inputs": [],
      "name": "withdrawLINK",
      "outputs": [],
      "stateMutability": "nonpayable",
      "type": "function"
    }
  ],
  "bytecode": "0x60c06040523480156200001157600080fd5b506040516200216f3803806200216f8339818101604052810190620000379190620002fa565b82828173ffffffffffffffffffffffffffffffffffffffff1660a08173ffffffffffffffffffffffffffffffffffffffff1660601b815250508073ffffffffffffffffffffffffffffffffffffffff1660808173ffffffffffffffffffffffffffffffffffffffff1660601b815250505050620000c9620000bd620001fe60201b60201c565b6200020660201b60201c565b84600260006101000a81548173ffffffffffffffffffffffffffffffffffffffff021916908373ffffffffffffffffffffffffffffffffffffffff16021790555083600460006101000a81548173ffffffffffffffffffffffffffffffffffffffff021916908373ffffffffffffffffffffffffffffffffffffffff16021790555080600a81905550655af3107a4000600b819055506040518060600160405280604051806020016040528060008152508152602001604051806020016040528060008152508152602001604051806020016040528068056bc75e2d6310000081525081525060076000820151816000016000820151816000015550506020820151816001016000820151816000015550506040820151816002016000820151816000015550509050505050505050620003f9565b600033905090565b6000600160009054906101000a900473ffffffffffffffffffffffffffffffffffffffff16905081600160006101000a81548173ffffffffffffffffffffffffffffffffffffffff021916908373ffffffffffffffffffffffffffffffffffffffff1602179055508173ffffffffffffffffffffffffffffffffffffffff168173ffffffffffffffffffffffffffffffffffffffff167f8be0079c531659141344cd1fd0a4f28419497f9722a3daafe3b4186f6b6457e060405160405180910390a35050565b600081519050620002dd81620003c5565b92915050565b600081519050620002f481620003df565b92915050565b600080600080600060a08688031215620003195762000318620003c0565b5b60006200032988828901620002cc565b95505060206200033c88828901620002cc565b94505060406200034f88828901620002cc565b93505060606200036288828901620002cc565b92505060806200037588828901620002e3565b9150509295509295909350565b60006200038f82620003a0565b9050919050565b6000819050919050565b600073ffffffffffffffffffffffffffffffffffffffff82169050919050565b600080fd5b620003d08162000382565b8114620003dc57600080fd5b50565b620003ea8162000396565b8114620003f657600080fd5b50565b60805160601c60a05160601c611d356200043a600039600081816108ae0152610fb60152600081816109c601528181610a030152610f7a0152611d356000f3fe608060405234801561001057600080fd5b50600436106100a95760003560e01c80638da5cb5b116100715780638da5cb5b1461013e57806394985ddd1461015c578063adc2112f14610178578063b66c76bc14610182578063f2fde38b146101a0578063f687ce98146101bc576100a9565b8063150b7a02146100ae57806317e5883c146100de57806342619f66146100fa57806354ba0f2714610118578063715018a614610134575b600080fd5b6100c860048036038101906100c39190611245565b6101ec565b6040516100d59190611820565b60405180910390f35b6100f860048036038101906100f39190611218565b6103a7565b005b610102610444565b60405161010f919061190b565b60405180910390f35b610132600480360381019061012d9190611218565b61044a565b005b61013c6107fa565b005b610146610882565b60405161015391906116de565b60405180910390f35b61017660048036038101906101719190611327565b6108ac565b005b610180610948565b005b61018a610b5a565b60405161019791906116de565b60405180910390f35b6101ba60048036038101906101b59190611218565b610b80565b005b6101d660048036038101906101d19190611218565b610c78565b6040516101e3919061190b565b60405180910390f35b6000600260009054906101000a900473ffffffffffffffffffffffffffffffffffffffff1673ffffffffffffffffffffffffffffffffffffffff166340e0e9e2600360009054906101000a900473ffffffffffffffffffffffffffffffffffffffff16866040518363ffffffff1660e01b815260040161026d929190611730565b600060405180830381600087803b15801561028757600080fd5b505af115801561029b573d6000803e3d6000fd5b50505050600460009054906101000a900473ffffffffffffffffffffffffffffffffffffffff1673ffffffffffffffffffffffffffffffffffffffff166342842e0e30600360009054906101000a900473ffffffffffffffffffffffffffffffffffffffff16876040518463ffffffff1660e01b8152600401610320939291906116f9565b600060405180830381600087803b15801561033a57600080fd5b505af115801561034e573d6000803e3d6000fd5b505050506000600360006101000a81548173ffffffffffffffffffffffffffffffffffffffff021916908373ffffffffffffffffffffffffffffffffffffffff16021790555063150b7a0260e01b905095945050505050565b3373ffffffffffffffffffffffffffffffffffffffff16600260009054906101000a900473ffffffffffffffffffffffffffffffffffffffff1673ffffffffffffffffffffffffffffffffffffffff1614610437576040517f08c379a000000000000000000000000000000000000000000000000000000000815260040161042e9061185b565b60405180910390fd5b61044081610cc1565b5050565b600c5481565b3373ffffffffffffffffffffffffffffffffffffffff16600260009054906101000a900473ffffffffffffffffffffffffffffffffffffffff1673ffffffffffffffffffffffffffffffffffffffff16146104da576040517f08c379a00000000000000000000000000000000000000000000000000000000081526004016104d19061185b565b60405180910390fd5b600060016103e8600660008573ffffffffffffffffffffffffffffffffffffffff1673ffffffffffffffffffffffffffffffffffffffff1681526020019081526020016000205461052b9190611ac4565b6105359190611985565b905060606103e8821415610580576040518060400160405280600981526020017f4c4547454e4441525900000000000000000000000000000000000000000000008152509050610649565b6103d48211156105c7576040518060400160405280600481526020017f45504943000000000000000000000000000000000000000000000000000000008152509050610648565b61030c82111561060e576040518060400160405280600481526020017f52415245000000000000000000000000000000000000000000000000000000008152509050610647565b6040518060400160405280600681526020017f434f4d4d4f4e000000000000000000000000000000000000000000000000000081525090505b5b5b6000600282600660008773ffffffffffffffffffffffffffffffffffffffff1673ffffffffffffffffffffffffffffffffffffffff1681526020019081526020016000205460405160200161069f9291906116b6565b6040516020818303038152906040526040516106bb919061169f565b602060405180830381855afa1580156106d8573d6000803e3d6000fd5b5050506040513d601f19601f820116820180604052508101906106fb91906112fa565b90506000604051806080016040528084815260200184815260200183815260200183815250905084600360006101000a81548173ffffffffffffffffffffffffffffffffffffffff021916908373ffffffffffffffffffffffffffffffffffffffff160217905550600460009054906101000a900473ffffffffffffffffffffffffffffffffffffffff1673ffffffffffffffffffffffffffffffffffffffff16632cca32378260076040518363ffffffff1660e01b81526004016107c19291906118db565b600060405180830381600087803b1580156107db57600080fd5b505af11580156107ef573d6000803e3d6000fd5b505050505050505050565b610802610d61565b73ffffffffffffffffffffffffffffffffffffffff16610820610882565b73ffffffffffffffffffffffffffffffffffffffff1614610876576040517f08c379a000000000000000000000000000000000000000000000000000000000815260040161086d9061187b565b60405180910390fd5b6108806000610d69565b565b6000600160009054906101000a900473ffffffffffffffffffffffffffffffffffffffff16905090565b7f000000000000000000000000000000000000000000000000000000000000000073ffffffffffffffffffffffffffffffffffffffff163373ffffffffffffffffffffffffffffffffffffffff161461093a576040517f08c379a00000000000000000000000000000000000000000000000000000000081526004016109319061189b565b60405180910390fd5b6109448282610e2f565b5050565b610950610d61565b73ffffffffffffffffffffffffffffffffffffffff1661096e610882565b73ffffffffffffffffffffffffffffffffffffffff16146109c4576040517f08c379a00000000000000000000000000000000000000000000000000000000081526004016109bb9061187b565b60405180910390fd5b7f000000000000000000000000000000000000000000000000000000000000000073ffffffffffffffffffffffffffffffffffffffff1663a9059cbb337f000000000000000000000000000000000000000000000000000000000000000073ffffffffffffffffffffffffffffffffffffffff166370a08231306040518263ffffffff1660e01b8152600401610a5a91906116de565b60206040518083038186803b158015610a7257600080fd5b505afa158015610a86573d6000803e3d6000fd5b505050506040513d601f19601f82011682018060405250810190610aaa9190611367565b6040518363ffffffff1660e01b8152600401610ac7929190611730565b602060405180830381600087803b158015610ae157600080fd5b505af1158015610af5573d6000803e3d6000fd5b505050506040513d601f19601f82011682018060405250810190610b1991906112cd565b610b58576040517f08c379a0000000000000000000000000000000000000000000000000000000008152600401610b4f906118bb565b60405180910390fd5b565b600260009054906101000a900473ffffffffffffffffffffffffffffffffffffffff1681565b610b88610d61565b73ffffffffffffffffffffffffffffffffffffffff16610ba6610882565b73ffffffffffffffffffffffffffffffffffffffff1614610bfc576040517f08c379a0000000000000000000000000000000000000000000000000000000008152600401610bf39061187b565b60405180910390fd5b600073ffffffffffffffffffffffffffffffffffffffff168173ffffffffffffffffffffffffffffffffffffffff161415610c6c576040517f08c379a0000000000000000000000000000000000000000000000000000000008152600401610c639061183b565b60405180910390fd5b610c7581610d69565b50565b6000600660008373ffffffffffffffffffffffffffffffffffffffff1673ffffffffffffffffffffffffffffffffffffffff168152602001908152602001600020549050919050565b6000610cd1600a54600b54610f76565b9050816005600083815260200190815260200160002060006101000a81548173ffffffffffffffffffffffffffffffffffffffff021916908373ffffffffffffffffffffffffffffffffffffffff1602179055507fe5f5b44d72d4143c278eb745c4acc0695c4a5bc616be5beecf46abe29661780e81604051610d549190611797565b60405180910390a1919050565b600033905090565b6000600160009054906101000a900473ffffffffffffffffffffffffffffffffffffffff16905081600160006101000a81548173ffffffffffffffffffffffffffffffffffffffff021916908373ffffffffffffffffffffffffffffffffffffffff1602179055508173ffffffffffffffffffffffffffffffffffffffff168173ffffffffffffffffffffffffffffffffffffffff167f8be0079c531659141344cd1fd0a4f28419497f9722a3daafe3b4186f6b6457e060405160405180910390a35050565b60006005600084815260200190815260200160002060009054906101000a900473ffffffffffffffffffffffffffffffffffffffff16905081600660008373ffffffffffffffffffffffffffffffffffffffff1673ffffffffffffffffffffffffffffffffffffffff16815260200190815260200160002081905550600260009054906101000a900473ffffffffffffffffffffffffffffffffffffffff1673ffffffffffffffffffffffffffffffffffffffff166319683a7c82846040518363ffffffff1660e01b8152600401610f08929190611730565b600060405180830381600087803b158015610f2257600080fd5b505af1158015610f36573d6000803e3d6000fd5b505050507fa312c4217fec2a5d353039350081a0149ed918efd6ec43d7f0e8a425f0715f1583604051610f699190611797565b60405180910390a1505050565b60007f000000000000000000000000000000000000000000000000000000000000000073ffffffffffffffffffffffffffffffffffffffff16634000aea07f000000000000000000000000000000000000000000000000000000000000000084866000604051602001610fea9291906117b2565b6040516020818303038152906040526040518463ffffffff1660e01b815260040161101793929190611759565b602060405180830381600087803b15801561103157600080fd5b505af1158015611045573d6000803e3d6000fd5b505050506040513d601f19601f8201168201806040525081019061106991906112cd565b50600061108b84600030600080898152602001908152602001600020546110d5565b90506001600080868152602001908152602001600020546110ac9190611985565b600080868152602001908152602001600020819055506110cc8482611111565b91505092915050565b6000848484846040516020016110ee94939291906117db565b6040516020818303038152906040528051906020012060001c9050949350505050565b60008282604051602001611126929190611673565b60405160208183030381529060405280519060200120905092915050565b60008135905061115381611ca3565b92915050565b60008151905061116881611cba565b92915050565b60008135905061117d81611cd1565b92915050565b60008151905061119281611cd1565b92915050565b60008083601f8401126111ae576111ad611b58565b5b8235905067ffffffffffffffff8111156111cb576111ca611b53565b5b6020830191508360018202830111156111e7576111e6611b5d565b5b9250929050565b6000813590506111fd81611ce8565b92915050565b60008151905061121281611ce8565b92915050565b60006020828403121561122e5761122d611b67565b5b600061123c84828501611144565b91505092915050565b60008060008060006080868803121561126157611260611b67565b5b600061126f88828901611144565b955050602061128088828901611144565b9450506040611291888289016111ee565b935050606086013567ffffffffffffffff8111156112b2576112b1611b62565b5b6112be88828901611198565b92509250509295509295909350565b6000602082840312156112e3576112e2611b67565b5b60006112f184828501611159565b91505092915050565b6000602082840312156113105761130f611b67565b5b600061131e84828501611183565b91505092915050565b6000806040838503121561133e5761133d611b67565b5b600061134c8582860161116e565b925050602061135d858286016111ee565b9150509250929050565b60006020828403121561137d5761137c611b67565b5b600061138b84828501611203565b91505092915050565b61139d816119e5565b82525050565b6113ac81611a03565b82525050565b6113bb81611a03565b82525050565b6113d26113cd82611a03565b611ab0565b82525050565b6113e181611a0d565b82525050565b60006113f282611926565b6113fc818561193c565b935061140c818560208601611a63565b61141581611b6c565b840191505092915050565b600061142b82611926565b611435818561194d565b9350611445818560208601611a63565b80840191505092915050565b600061145c82611931565b6114668185611958565b9350611476818560208601611a63565b61147f81611b6c565b840191505092915050565b600061149582611931565b61149f818561197a565b93506114af818560208601611a63565b80840191505092915050565b60006114c8602683611969565b91506114d382611b8a565b604082019050919050565b60006114eb602383611969565b91506114f682611bd9565b604082019050919050565b600061150e602083611969565b915061151982611c28565b602082019050919050565b6000611531601f83611969565b915061153c82611c51565b602082019050919050565b6000611554601f83611969565b915061155f82611c7a565b602082019050919050565b60608201600080830161158060008601826115ab565b506001830161159260208601826115ab565b50600283016115a460408601826115ab565b5050505050565b6020820160008083015490506115c081611a96565b6115cd600086018261163e565b5050505050565b600060808301600083015184820360008601526115f18282611451565b9150506020830151848203602086015261160b8282611451565b915050604083015161162060408601826113a3565b50606083015161163360608601826113a3565b508091505092915050565b61164781611a59565b82525050565b61165681611a59565b82525050565b61166d61166882611a59565b611aba565b82525050565b600061167f82856113c1565b60208201915061168f828461165c565b6020820191508190509392505050565b60006116ab8284611420565b915081905092915050565b60006116c2828561148a565b91506116ce828461165c565b6020820191508190509392505050565b60006020820190506116f36000830184611394565b92915050565b600060608201905061170e6000830186611394565b61171b6020830185611394565b611728604083018461164d565b949350505050565b60006040820190506117456000830185611394565b611752602083018461164d565b9392505050565b600060608201905061176e6000830186611394565b61177b602083018561164d565b818103604083015261178d81846113e7565b9050949350505050565b60006020820190506117ac60008301846113b2565b92915050565b60006040820190506117c760008301856113b2565b6117d4602083018461164d565b9392505050565b60006080820190506117f060008301876113b2565b6117fd602083018661164d565b61180a6040830185611394565b611817606083018461164d565b95945050505050565b600060208201905061183560008301846113d8565b92915050565b60006020820190508181036000830152611854816114bb565b9050919050565b60006020820190508181036000830152611874816114de565b9050919050565b6000602082019050818103600083015261189481611501565b9050919050565b600060208201905081810360008301526118b481611524565b9050919050565b600060208201905081810360008301526118d481611547565b9050919050565b600060808201905081810360008301526118f581856115d4565b9050611904602083018461156a565b9392505050565b6000602082019050611920600083018461164d565b92915050565b600081519050919050565b600081519050919050565b600082825260208201905092915050565b600081905092915050565b600082825260208201905092915050565b600082825260208201905092915050565b600081905092915050565b600061199082611a59565b915061199b83611a59565b9250827fffffffffffffffffffffffffffffffffffffffffffffffffffffffffffffffff038211156119d0576119cf611af5565b5b828201905092915050565b6000819050919050565b60006119f082611a39565b9050919050565b60008115159050919050565b6000819050919050565b60007fffffffff0000000000000000000000000000000000000000000000000000000082169050919050565b600073ffffffffffffffffffffffffffffffffffffffff82169050919050565b6000819050919050565b60005b83811015611a81578082015181840152602081019050611a66565b83811115611a90576000848401525b50505050565b6000611aa9611aa483611b7d565b6119db565b9050919050565b6000819050919050565b6000819050919050565b6000611acf82611a59565b9150611ada83611a59565b925082611aea57611ae9611b24565b5b828206905092915050565b7f4e487b7100000000000000000000000000000000000000000000000000000000600052601160045260246000fd5b7f4e487b7100000000000000000000000000000000000000000000000000000000600052601260045260246000fd5b600080fd5b600080fd5b600080fd5b600080fd5b600080fd5b6000601f19601f8301169050919050565b60008160001c9050919050565b7f4f776e61626c653a206e6577206f776e657220697320746865207a65726f206160008201527f6464726573730000000000000000000000000000000000000000000000000000602082015250565b7f46455252595f4e46543a204f4e4c5920464552525920495320415554484f524960008201527f5a45440000000000000000000000000000000000000000000000000000000000602082015250565b7f4f776e61626c653a2063616c6c6572206973206e6f7420746865206f776e6572600082015250565b7f4f6e6c7920565246436f6f7264696e61746f722063616e2066756c66696c6c00600082015250565b7f46455252595f4e46543a204c494e4b205749544844524157204641494c454400600082015250565b611cac816119e5565b8114611cb757600080fd5b50565b611cc3816119f7565b8114611cce57600080fd5b50565b611cda81611a03565b8114611ce557600080fd5b50565b611cf181611a59565b8114611cfc57600080fd5b5056fea26469706673582212209259220bd789955ab975a40febbe4eb7312897f982ad112318b23b2dc6e1394064736f6c63430008060033",
  "linkReferences": {},
  "deployedLinkReferences": {}
}