{
  "_format": "hh-sol-artifact-1",
  "contractName": "FerryNFTMinter",
  "sourceName": "contracts/FerryNFTMinter.sol",
  "abi": [
    {
      "inputs": [
        {
          "internalType": "address",
          "name": "_ferry",
          "type": "address"
        },
        {
          "internalType": "address",
          "name": "_zoraMediaAddress",
          "type": "address"
        },
        {
          "internalType": "address",
          "name": "_vrfCoordinator",
          "type": "address"
        },
        {
          "internalType": "address",
          "name": "_link",
          "type": "address"
        },
        {
          "internalType": "bytes32",
          "name": "_keyHash",
          "type": "bytes32"
        }
      ],
      "stateMutability": "nonpayable",
      "type": "constructor"
    },
    {
      "anonymous": false,
      "inputs": [
        {
          "indexed": true,
          "internalType": "address",
          "name": "previousOwner",
          "type": "address"
        },
        {
          "indexed": true,
          "internalType": "address",
          "name": "newOwner",
          "type": "address"
        }
      ],
      "name": "OwnershipTransferred",
      "type": "event"
    },
    {
      "anonymous": false,
      "inputs": [
        {
          "indexed": false,
          "internalType": "bytes32",
          "name": "requestId",
          "type": "bytes32"
        }
      ],
      "name": "RandomnessFulfilled",
      "type": "event"
    },
    {
      "anonymous": false,
      "inputs": [
        {
          "indexed": false,
          "internalType": "bytes32",
          "name": "requestId",
          "type": "bytes32"
        }
      ],
      "name": "RequestedRandomness",
      "type": "event"
    },
    {
      "inputs": [],
      "name": "CommonNFT",
      "outputs": [
        {
          "internalType": "string",
          "name": "",
          "type": "string"
        }
      ],
      "stateMutability": "view",
      "type": "function"
    },
    {
      "inputs": [],
      "name": "EpicNFT",
      "outputs": [
        {
          "internalType": "string",
          "name": "",
          "type": "string"
        }
      ],
      "stateMutability": "view",
      "type": "function"
    },
    {
      "inputs": [],
      "name": "LegendaryNFT",
      "outputs": [
        {
          "internalType": "string",
          "name": "",
          "type": "string"
        }
      ],
      "stateMutability": "view",
      "type": "function"
    },
    {
      "inputs": [],
      "name": "RareNFT",
      "outputs": [
        {
          "internalType": "string",
          "name": "",
          "type": "string"
        }
      ],
      "stateMutability": "view",
      "type": "function"
    },
    {
      "inputs": [
        {
          "internalType": "address",
          "name": "_account",
          "type": "address"
        }
      ],
      "name": "createNFT",
      "outputs": [],
      "stateMutability": "nonpayable",
      "type": "function"
    },
    {
      "inputs": [],
      "name": "ferry",
      "outputs": [
        {
          "internalType": "address",
          "name": "",
          "type": "address"
        }
      ],
      "stateMutability": "view",
      "type": "function"
    },
    {
      "inputs": [
        {
          "internalType": "address",
          "name": "_account",
          "type": "address"
        }
      ],
      "name": "getAccountRandomNum",
      "outputs": [
        {
          "internalType": "uint256",
          "name": "",
          "type": "uint256"
        }
      ],
      "stateMutability": "view",
      "type": "function"
    },
    {
      "inputs": [
        {
          "internalType": "address",
          "name": "_account",
          "type": "address"
        }
      ],
      "name": "mintNFT",
      "outputs": [],
      "stateMutability": "nonpayable",
      "type": "function"
    },
    {
      "inputs": [
        {
          "internalType": "address",
          "name": "_operator",
          "type": "address"
        },
        {
          "internalType": "address",
          "name": "_from",
          "type": "address"
        },
        {
          "internalType": "uint256",
          "name": "_tokenId",
          "type": "uint256"
        },
        {
          "internalType": "bytes",
          "name": "_data",
          "type": "bytes"
        }
      ],
      "name": "onERC721Received",
      "outputs": [
        {
          "internalType": "bytes4",
          "name": "",
          "type": "bytes4"
        }
      ],
      "stateMutability": "nonpayable",
      "type": "function"
    },
    {
      "inputs": [],
      "name": "owner",
      "outputs": [
        {
          "internalType": "address",
          "name": "",
          "type": "address"
        }
      ],
      "stateMutability": "view",
      "type": "function"
    },
    {
      "inputs": [],
      "name": "randomResult",
      "outputs": [
        {
          "internalType": "uint256",
          "name": "",
          "type": "uint256"
        }
      ],
      "stateMutability": "view",
      "type": "function"
    },
    {
      "inputs": [
        {
          "internalType": "bytes32",
          "name": "requestId",
          "type": "bytes32"
        },
        {
          "internalType": "uint256",
          "name": "randomness",
          "type": "uint256"
        }
      ],
      "name": "rawFulfillRandomness",
      "outputs": [],
      "stateMutability": "nonpayable",
      "type": "function"
    },
    {
      "inputs": [],
      "name": "renounceOwnership",
      "outputs": [],
      "stateMutability": "nonpayable",
      "type": "function"
    },
    {
      "inputs": [
        {
          "internalType": "address",
          "name": "newOwner",
          "type": "address"
        }
      ],
      "name": "transferOwnership",
      "outputs": [],
      "stateMutability": "nonpayable",
      "type": "function"
    },
    {
      "inputs": [],
      "name": "withdrawLINK",
      "outputs": [],
      "stateMutability": "nonpayable",
      "type": "function"
    }
  ],
  "bytecode": "0x60c06040523480156200001157600080fd5b5060405162002451380380620024518339818101604052810190620000379190620002fa565b82828173ffffffffffffffffffffffffffffffffffffffff1660a08173ffffffffffffffffffffffffffffffffffffffff1660601b815250508073ffffffffffffffffffffffffffffffffffffffff1660808173ffffffffffffffffffffffffffffffffffffffff1660601b815250505050620000c9620000bd620001fe60201b60201c565b6200020660201b60201c565b84600260006101000a81548173ffffffffffffffffffffffffffffffffffffffff021916908373ffffffffffffffffffffffffffffffffffffffff16021790555083600460006101000a81548173ffffffffffffffffffffffffffffffffffffffff021916908373ffffffffffffffffffffffffffffffffffffffff16021790555080600a81905550655af3107a4000600b819055506040518060600160405280604051806020016040528060008152508152602001604051806020016040528060008152508152602001604051806020016040528068056bc75e2d6310000081525081525060076000820151816000016000820151816000015550506020820151816001016000820151816000015550506040820151816002016000820151816000015550509050505050505050620003f9565b600033905090565b6000600160009054906101000a900473ffffffffffffffffffffffffffffffffffffffff16905081600160006101000a81548173ffffffffffffffffffffffffffffffffffffffff021916908373ffffffffffffffffffffffffffffffffffffffff1602179055508173ffffffffffffffffffffffffffffffffffffffff168173ffffffffffffffffffffffffffffffffffffffff167f8be0079c531659141344cd1fd0a4f28419497f9722a3daafe3b4186f6b6457e060405160405180910390a35050565b600081519050620002dd81620003c5565b92915050565b600081519050620002f481620003df565b92915050565b600080600080600060a08688031215620003195762000318620003c0565b5b60006200032988828901620002cc565b95505060206200033c88828901620002cc565b94505060406200034f88828901620002cc565b93505060606200036288828901620002cc565b92505060806200037588828901620002e3565b9150509295509295909350565b60006200038f82620003a0565b9050919050565b6000819050919050565b600073ffffffffffffffffffffffffffffffffffffffff82169050919050565b600080fd5b620003d08162000382565b8114620003dc57600080fd5b50565b620003ea8162000396565b8114620003f657600080fd5b50565b60805160601c60a05160601c6120176200043a600039600081816109360152611076015260008181610a4e01528181610a8b015261103a01526120176000f3fe608060405234801561001057600080fd5b50600436106100f55760003560e01c80639385153b11610097578063c989edbb11610066578063c989edbb14610228578063f2fde38b14610246578063f687ce9814610262578063fd9ff62a14610292576100f5565b80639385153b146101c657806394985ddd146101e4578063adc2112f14610200578063b66c76bc1461020a576100f5565b806354ba0f27116100d357806354ba0f2714610164578063715018a6146101805780637ca8ad711461018a5780638da5cb5b146101a8576100f5565b8063150b7a02146100fa57806317e5883c1461012a57806342619f6614610146575b600080fd5b610114600480360381019061010f9190611305565b6102b0565b6040516101219190611919565b60405180910390f35b610144600480360381019061013f91906112d8565b61046b565b005b61014e610508565b60405161015b9190611a26565b60405180910390f35b61017e600480360381019061017991906112d8565b61050e565b005b61018861084a565b005b6101926108d2565b60405161019f9190611934565b60405180910390f35b6101b06108ee565b6040516101bd91906117d7565b60405180910390f35b6101ce610918565b6040516101db9190611934565b60405180910390f35b6101fe60048036038101906101f991906113e7565b610934565b005b6102086109d0565b005b610212610be2565b60405161021f91906117d7565b60405180910390f35b610230610c08565b60405161023d9190611934565b60405180910390f35b610260600480360381019061025b91906112d8565b610c24565b005b61027c600480360381019061027791906112d8565b610d1c565b6040516102899190611a26565b60405180910390f35b61029a610d65565b6040516102a79190611934565b60405180910390f35b6000600260009054906101000a900473ffffffffffffffffffffffffffffffffffffffff1673ffffffffffffffffffffffffffffffffffffffff166340e0e9e2600360009054906101000a900473ffffffffffffffffffffffffffffffffffffffff16866040518363ffffffff1660e01b8152600401610331929190611829565b600060405180830381600087803b15801561034b57600080fd5b505af115801561035f573d6000803e3d6000fd5b50505050600460009054906101000a900473ffffffffffffffffffffffffffffffffffffffff1673ffffffffffffffffffffffffffffffffffffffff166342842e0e30600360009054906101000a900473ffffffffffffffffffffffffffffffffffffffff16876040518463ffffffff1660e01b81526004016103e4939291906117f2565b600060405180830381600087803b1580156103fe57600080fd5b505af1158015610412573d6000803e3d6000fd5b505050506000600360006101000a81548173ffffffffffffffffffffffffffffffffffffffff021916908373ffffffffffffffffffffffffffffffffffffffff16021790555063150b7a0260e01b905095945050505050565b3373ffffffffffffffffffffffffffffffffffffffff16600260009054906101000a900473ffffffffffffffffffffffffffffffffffffffff1673ffffffffffffffffffffffffffffffffffffffff16146104fb576040517f08c379a00000000000000000000000000000000000000000000000000000000081526004016104f290611976565b60405180910390fd5b61050481610d81565b5050565b600c5481565b3373ffffffffffffffffffffffffffffffffffffffff16600260009054906101000a900473ffffffffffffffffffffffffffffffffffffffff1673ffffffffffffffffffffffffffffffffffffffff161461059e576040517f08c379a000000000000000000000000000000000000000000000000000000000815260040161059590611976565b60405180910390fd5b600060016103e8600660008573ffffffffffffffffffffffffffffffffffffffff1673ffffffffffffffffffffffffffffffffffffffff168152602001908152602001600020546105ef9190611bdf565b6105f99190611aa0565b905060606103e8821415610627576040518060a00160405280606f8152602001611f73606f91399050610699565b6103d4821115610651576040518060c0016040528060848152602001611e81608491399050610698565b61030c82111561067b576040518060a0016040528060668152602001611e1b606691399050610697565b6040518060a00160405280606e8152602001611f05606e913990505b5b5b6000600282600660008773ffffffffffffffffffffffffffffffffffffffff1673ffffffffffffffffffffffffffffffffffffffff168152602001908152602001600020546040516020016106ef9291906117af565b60405160208183030381529060405260405161070b9190611798565b602060405180830381855afa158015610728573d6000803e3d6000fd5b5050506040513d601f19601f8201168201806040525081019061074b91906113ba565b90506000604051806080016040528084815260200184815260200183815260200183815250905084600360006101000a81548173ffffffffffffffffffffffffffffffffffffffff021916908373ffffffffffffffffffffffffffffffffffffffff160217905550600460009054906101000a900473ffffffffffffffffffffffffffffffffffffffff1673ffffffffffffffffffffffffffffffffffffffff16632cca32378260076040518363ffffffff1660e01b81526004016108119291906119f6565b600060405180830381600087803b15801561082b57600080fd5b505af115801561083f573d6000803e3d6000fd5b505050505050505050565b610852610e21565b73ffffffffffffffffffffffffffffffffffffffff166108706108ee565b73ffffffffffffffffffffffffffffffffffffffff16146108c6576040517f08c379a00000000000000000000000000000000000000000000000000000000081526004016108bd90611996565b60405180910390fd5b6108d06000610e29565b565b6040518060a00160405280606f8152602001611f73606f913981565b6000600160009054906101000a900473ffffffffffffffffffffffffffffffffffffffff16905090565b6040518060a00160405280606e8152602001611f05606e913981565b7f000000000000000000000000000000000000000000000000000000000000000073ffffffffffffffffffffffffffffffffffffffff163373ffffffffffffffffffffffffffffffffffffffff16146109c2576040517f08c379a00000000000000000000000000000000000000000000000000000000081526004016109b9906119b6565b60405180910390fd5b6109cc8282610eef565b5050565b6109d8610e21565b73ffffffffffffffffffffffffffffffffffffffff166109f66108ee565b73ffffffffffffffffffffffffffffffffffffffff1614610a4c576040517f08c379a0000000000000000000000000000000000000000000000000000000008152600401610a4390611996565b60405180910390fd5b7f000000000000000000000000000000000000000000000000000000000000000073ffffffffffffffffffffffffffffffffffffffff1663a9059cbb337f000000000000000000000000000000000000000000000000000000000000000073ffffffffffffffffffffffffffffffffffffffff166370a08231306040518263ffffffff1660e01b8152600401610ae291906117d7565b60206040518083038186803b158015610afa57600080fd5b505afa158015610b0e573d6000803e3d6000fd5b505050506040513d601f19601f82011682018060405250810190610b329190611427565b6040518363ffffffff1660e01b8152600401610b4f929190611829565b602060405180830381600087803b158015610b6957600080fd5b505af1158015610b7d573d6000803e3d6000fd5b505050506040513d601f19601f82011682018060405250810190610ba1919061138d565b610be0576040517f08c379a0000000000000000000000000000000000000000000000000000000008152600401610bd7906119d6565b60405180910390fd5b565b600260009054906101000a900473ffffffffffffffffffffffffffffffffffffffff1681565b6040518060a0016040528060668152602001611e1b6066913981565b610c2c610e21565b73ffffffffffffffffffffffffffffffffffffffff16610c4a6108ee565b73ffffffffffffffffffffffffffffffffffffffff1614610ca0576040517f08c379a0000000000000000000000000000000000000000000000000000000008152600401610c9790611996565b60405180910390fd5b600073ffffffffffffffffffffffffffffffffffffffff168173ffffffffffffffffffffffffffffffffffffffff161415610d10576040517f08c379a0000000000000000000000000000000000000000000000000000000008152600401610d0790611956565b60405180910390fd5b610d1981610e29565b50565b6000600660008373ffffffffffffffffffffffffffffffffffffffff1673ffffffffffffffffffffffffffffffffffffffff168152602001908152602001600020549050919050565b6040518060c0016040528060848152602001611e816084913981565b6000610d91600a54600b54611036565b9050816005600083815260200190815260200160002060006101000a81548173ffffffffffffffffffffffffffffffffffffffff021916908373ffffffffffffffffffffffffffffffffffffffff1602179055507fe5f5b44d72d4143c278eb745c4acc0695c4a5bc616be5beecf46abe29661780e81604051610e149190611890565b60405180910390a1919050565b600033905090565b6000600160009054906101000a900473ffffffffffffffffffffffffffffffffffffffff16905081600160006101000a81548173ffffffffffffffffffffffffffffffffffffffff021916908373ffffffffffffffffffffffffffffffffffffffff1602179055508173ffffffffffffffffffffffffffffffffffffffff168173ffffffffffffffffffffffffffffffffffffffff167f8be0079c531659141344cd1fd0a4f28419497f9722a3daafe3b4186f6b6457e060405160405180910390a35050565b60006005600084815260200190815260200160002060009054906101000a900473ffffffffffffffffffffffffffffffffffffffff16905081600660008373ffffffffffffffffffffffffffffffffffffffff1673ffffffffffffffffffffffffffffffffffffffff16815260200190815260200160002081905550600260009054906101000a900473ffffffffffffffffffffffffffffffffffffffff1673ffffffffffffffffffffffffffffffffffffffff166319683a7c82846040518363ffffffff1660e01b8152600401610fc8929190611829565b600060405180830381600087803b158015610fe257600080fd5b505af1158015610ff6573d6000803e3d6000fd5b505050507fa312c4217fec2a5d353039350081a0149ed918efd6ec43d7f0e8a425f0715f15836040516110299190611890565b60405180910390a1505050565b60007f000000000000000000000000000000000000000000000000000000000000000073ffffffffffffffffffffffffffffffffffffffff16634000aea07f0000000000000000000000000000000000000000000000000000000000000000848660006040516020016110aa9291906118ab565b6040516020818303038152906040526040518463ffffffff1660e01b81526004016110d793929190611852565b602060405180830381600087803b1580156110f157600080fd5b505af1158015611105573d6000803e3d6000fd5b505050506040513d601f19601f82011682018060405250810190611129919061138d565b50600061114b8460003060008089815260200190815260200160002054611195565b905060016000808681526020019081526020016000205461116c9190611aa0565b6000808681526020019081526020016000208190555061118c84826111d1565b91505092915050565b6000848484846040516020016111ae94939291906118d4565b6040516020818303038152906040528051906020012060001c9050949350505050565b600082826040516020016111e692919061176c565b60405160208183030381529060405280519060200120905092915050565b60008135905061121381611dbe565b92915050565b60008151905061122881611dd5565b92915050565b60008135905061123d81611dec565b92915050565b60008151905061125281611dec565b92915050565b60008083601f84011261126e5761126d611c73565b5b8235905067ffffffffffffffff81111561128b5761128a611c6e565b5b6020830191508360018202830111156112a7576112a6611c78565b5b9250929050565b6000813590506112bd81611e03565b92915050565b6000815190506112d281611e03565b92915050565b6000602082840312156112ee576112ed611c82565b5b60006112fc84828501611204565b91505092915050565b60008060008060006080868803121561132157611320611c82565b5b600061132f88828901611204565b955050602061134088828901611204565b9450506040611351888289016112ae565b935050606086013567ffffffffffffffff81111561137257611371611c7d565b5b61137e88828901611258565b92509250509295509295909350565b6000602082840312156113a3576113a2611c82565b5b60006113b184828501611219565b91505092915050565b6000602082840312156113d0576113cf611c82565b5b60006113de84828501611243565b91505092915050565b600080604083850312156113fe576113fd611c82565b5b600061140c8582860161122e565b925050602061141d858286016112ae565b9150509250929050565b60006020828403121561143d5761143c611c82565b5b600061144b848285016112c3565b91505092915050565b61145d81611b00565b82525050565b61146c81611b1e565b82525050565b61147b81611b1e565b82525050565b61149261148d82611b1e565b611bcb565b82525050565b6114a181611b28565b82525050565b60006114b282611a41565b6114bc8185611a57565b93506114cc818560208601611b7e565b6114d581611c87565b840191505092915050565b60006114eb82611a41565b6114f58185611a68565b9350611505818560208601611b7e565b80840191505092915050565b600061151c82611a4c565b6115268185611a73565b9350611536818560208601611b7e565b61153f81611c87565b840191505092915050565b600061155582611a4c565b61155f8185611a84565b935061156f818560208601611b7e565b61157881611c87565b840191505092915050565b600061158e82611a4c565b6115988185611a95565b93506115a8818560208601611b7e565b80840191505092915050565b60006115c1602683611a84565b91506115cc82611ca5565b604082019050919050565b60006115e4602383611a84565b91506115ef82611cf4565b604082019050919050565b6000611607602083611a84565b915061161282611d43565b602082019050919050565b600061162a601f83611a84565b915061163582611d6c565b602082019050919050565b600061164d601f83611a84565b915061165882611d95565b602082019050919050565b60608201600080830161167960008601826116a4565b506001830161168b60208601826116a4565b506002830161169d60408601826116a4565b5050505050565b6020820160008083015490506116b981611bb1565b6116c66000860182611737565b5050505050565b600060808301600083015184820360008601526116ea8282611511565b915050602083015184820360208601526117048282611511565b91505060408301516117196040860182611463565b50606083015161172c6060860182611463565b508091505092915050565b61174081611b74565b82525050565b61174f81611b74565b82525050565b61176661176182611b74565b611bd5565b82525050565b60006117788285611481565b6020820191506117888284611755565b6020820191508190509392505050565b60006117a482846114e0565b915081905092915050565b60006117bb8285611583565b91506117c78284611755565b6020820191508190509392505050565b60006020820190506117ec6000830184611454565b92915050565b60006060820190506118076000830186611454565b6118146020830185611454565b6118216040830184611746565b949350505050565b600060408201905061183e6000830185611454565b61184b6020830184611746565b9392505050565b60006060820190506118676000830186611454565b6118746020830185611746565b818103604083015261188681846114a7565b9050949350505050565b60006020820190506118a56000830184611472565b92915050565b60006040820190506118c06000830185611472565b6118cd6020830184611746565b9392505050565b60006080820190506118e96000830187611472565b6118f66020830186611746565b6119036040830185611454565b6119106060830184611746565b95945050505050565b600060208201905061192e6000830184611498565b92915050565b6000602082019050818103600083015261194e818461154a565b905092915050565b6000602082019050818103600083015261196f816115b4565b9050919050565b6000602082019050818103600083015261198f816115d7565b9050919050565b600060208201905081810360008301526119af816115fa565b9050919050565b600060208201905081810360008301526119cf8161161d565b9050919050565b600060208201905081810360008301526119ef81611640565b9050919050565b60006080820190508181036000830152611a1081856116cd565b9050611a1f6020830184611663565b9392505050565b6000602082019050611a3b6000830184611746565b92915050565b600081519050919050565b600081519050919050565b600082825260208201905092915050565b600081905092915050565b600082825260208201905092915050565b600082825260208201905092915050565b600081905092915050565b6000611aab82611b74565b9150611ab683611b74565b9250827fffffffffffffffffffffffffffffffffffffffffffffffffffffffffffffffff03821115611aeb57611aea611c10565b5b828201905092915050565b6000819050919050565b6000611b0b82611b54565b9050919050565b60008115159050919050565b6000819050919050565b60007fffffffff0000000000000000000000000000000000000000000000000000000082169050919050565b600073ffffffffffffffffffffffffffffffffffffffff82169050919050565b6000819050919050565b60005b83811015611b9c578082015181840152602081019050611b81565b83811115611bab576000848401525b50505050565b6000611bc4611bbf83611c98565b611af6565b9050919050565b6000819050919050565b6000819050919050565b6000611bea82611b74565b9150611bf583611b74565b925082611c0557611c04611c3f565b5b828206905092915050565b7f4e487b7100000000000000000000000000000000000000000000000000000000600052601160045260246000fd5b7f4e487b7100000000000000000000000000000000000000000000000000000000600052601260045260246000fd5b600080fd5b600080fd5b600080fd5b600080fd5b600080fd5b6000601f19601f8301169050919050565b60008160001c9050919050565b7f4f776e61626c653a206e6577206f776e657220697320746865207a65726f206160008201527f6464726573730000000000000000000000000000000000000000000000000000602082015250565b7f46455252595f4e46543a204f4e4c5920464552525920495320415554484f524960008201527f5a45440000000000000000000000000000000000000000000000000000000000602082015250565b7f4f776e61626c653a2063616c6c6572206973206e6f7420746865206f776e6572600082015250565b7f4f6e6c7920565246436f6f7264696e61746f722063616e2066756c66696c6c00600082015250565b7f46455252595f4e46543a204c494e4b205749544844524157204641494c454400600082015250565b611dc781611b00565b8114611dd257600080fd5b50565b611dde81611b12565b8114611de957600080fd5b50565b611df581611b1e565b8114611e0057600080fd5b50565b611e0c81611b74565b8114611e1757600080fd5b5056fe68747470733a2f2f626166796265696674677871706d34326e70686c7670676f35666b34723679707a65647378776264336832353635326c77677a36636e6f797278612e697066732e647765622e6c696e6b2f526172652532305369676874696e672e73766768747470733a2f2f6261667962656967656a683275617a63646c79706b336b7a757471736a753737766876746b6161696332696c32706b6c32376277753368336176792e697066732e647765622e6c696e6b2f596f752532304c6f6f6b253230536f253230476f6f64253230496e2532305465616c2532302d253230457069632e73766768747470733a2f2f62616679626569643674667968787877346b636676337679696d7776346c7069656d6b687364666c326b616d6167757273697833326836636464612e697066732e647765622e6c696e6b2f436f6d6d6f6e2532304c6974746c6525323046657272792e73766768747470733a2f2f626166796265696670756b617a6f7a6d71346271346b7736716868776137636978686a69657076783376616571636b3479713563697472647263712e697066732e647765622e6c696e6b2f536f6c6964253230476f6c642532304c6567656e646172792e737667a264697066735822122050a99274f78487fcdb878bf9db514d0564c80cc3ddffdb8e543b6c9eb50b649964736f6c63430008060033",
  "linkReferences": {},
  "deployedLinkReferences": {}
}