{
  "_format": "hh-sol-artifact-1",
  "contractName": "Ferry",
  "sourceName": "contracts/Ferry.sol",
  "abi": [
    {
      "inputs": [
        {
          "internalType": "uint256",
          "name": "_annualFee",
          "type": "uint256"
        },
        {
          "internalType": "uint256",
          "name": "_maxMintedNFTs",
          "type": "uint256"
        },
        {
          "internalType": "uint256",
          "name": "_nftThreshold",
          "type": "uint256"
        },
        {
          "internalType": "uint256",
          "name": "_maxMembershipPeriod",
          "type": "uint256"
        },
        {
          "internalType": "address",
          "name": "_dai",
          "type": "address"
        },
        {
          "internalType": "address",
          "name": "_lendingPool",
          "type": "address"
        },
        {
          "internalType": "address",
          "name": "_nftMinter",
          "type": "address"
        }
      ],
      "stateMutability": "nonpayable",
      "type": "constructor"
    },
    {
      "anonymous": false,
      "inputs": [
        {
          "indexed": true,
          "internalType": "address",
          "name": "previousOwner",
          "type": "address"
        },
        {
          "indexed": true,
          "internalType": "address",
          "name": "newOwner",
          "type": "address"
        }
      ],
      "name": "OwnershipTransferred",
      "type": "event"
    },
    {
      "inputs": [],
      "name": "YEAR",
      "outputs": [
        {
          "internalType": "uint256",
          "name": "",
          "type": "uint256"
        }
      ],
      "stateMutability": "view",
      "type": "function"
    },
    {
      "inputs": [],
      "name": "annualFee",
      "outputs": [
        {
          "internalType": "uint256",
          "name": "",
          "type": "uint256"
        }
      ],
      "stateMutability": "view",
      "type": "function"
    },
    {
      "inputs": [],
      "name": "daiAddress",
      "outputs": [
        {
          "internalType": "address",
          "name": "",
          "type": "address"
        }
      ],
      "stateMutability": "view",
      "type": "function"
    },
    {
      "inputs": [
        {
          "internalType": "uint256",
          "name": "_amount",
          "type": "uint256"
        }
      ],
      "name": "depositInAave",
      "outputs": [],
      "stateMutability": "nonpayable",
      "type": "function"
    },
    {
      "inputs": [
        {
          "internalType": "address",
          "name": "_account",
          "type": "address"
        }
      ],
      "name": "getAccountNFT",
      "outputs": [
        {
          "internalType": "uint256",
          "name": "randomNum",
          "type": "uint256"
        },
        {
          "internalType": "uint256",
          "name": "index",
          "type": "uint256"
        },
        {
          "internalType": "uint256",
          "name": "tokenID",
          "type": "uint256"
        }
      ],
      "stateMutability": "view",
      "type": "function"
    },
    {
      "inputs": [
        {
          "internalType": "address",
          "name": "_account",
          "type": "address"
        }
      ],
      "name": "getMembershipExpiryTime",
      "outputs": [
        {
          "internalType": "uint256",
          "name": "",
          "type": "uint256"
        }
      ],
      "stateMutability": "view",
      "type": "function"
    },
    {
      "inputs": [],
      "name": "maxMembershipPeriod",
      "outputs": [
        {
          "internalType": "uint256",
          "name": "",
          "type": "uint256"
        }
      ],
      "stateMutability": "view",
      "type": "function"
    },
    {
      "inputs": [],
      "name": "maxMintedNFTs",
      "outputs": [
        {
          "internalType": "uint256",
          "name": "",
          "type": "uint256"
        }
      ],
      "stateMutability": "view",
      "type": "function"
    },
    {
      "inputs": [
        {
          "internalType": "address",
          "name": "_account",
          "type": "address"
        }
      ],
      "name": "mintNFT",
      "outputs": [],
      "stateMutability": "nonpayable",
      "type": "function"
    },
    {
      "inputs": [],
      "name": "minterAddress",
      "outputs": [
        {
          "internalType": "address",
          "name": "",
          "type": "address"
        }
      ],
      "stateMutability": "view",
      "type": "function"
    },
    {
      "inputs": [],
      "name": "nftCount",
      "outputs": [
        {
          "internalType": "uint256",
          "name": "",
          "type": "uint256"
        }
      ],
      "stateMutability": "view",
      "type": "function"
    },
    {
      "inputs": [
        {
          "internalType": "address",
          "name": "_account",
          "type": "address"
        },
        {
          "internalType": "uint256",
          "name": "_randomNum",
          "type": "uint256"
        }
      ],
      "name": "nftCreatedCallback",
      "outputs": [],
      "stateMutability": "nonpayable",
      "type": "function"
    },
    {
      "inputs": [],
      "name": "nftThresholdPayment",
      "outputs": [
        {
          "internalType": "uint256",
          "name": "",
          "type": "uint256"
        }
      ],
      "stateMutability": "view",
      "type": "function"
    },
    {
      "inputs": [],
      "name": "nftsActive",
      "outputs": [
        {
          "internalType": "bool",
          "name": "",
          "type": "bool"
        }
      ],
      "stateMutability": "view",
      "type": "function"
    },
    {
      "inputs": [],
      "name": "owner",
      "outputs": [
        {
          "internalType": "address",
          "name": "",
          "type": "address"
        }
      ],
      "stateMutability": "view",
      "type": "function"
    },
    {
      "inputs": [
        {
          "internalType": "address",
          "name": "_account",
          "type": "address"
        },
        {
          "internalType": "uint256",
          "name": "_amount",
          "type": "uint256"
        }
      ],
      "name": "paySubscription",
      "outputs": [],
      "stateMutability": "nonpayable",
      "type": "function"
    },
    {
      "inputs": [],
      "name": "renounceOwnership",
      "outputs": [],
      "stateMutability": "nonpayable",
      "type": "function"
    },
    {
      "inputs": [
        {
          "internalType": "uint256",
          "name": "_annualFee",
          "type": "uint256"
        }
      ],
      "name": "setAnnualFee",
      "outputs": [],
      "stateMutability": "nonpayable",
      "type": "function"
    },
    {
      "inputs": [
        {
          "internalType": "address",
          "name": "_lendingPool",
          "type": "address"
        }
      ],
      "name": "setLendingPool",
      "outputs": [],
      "stateMutability": "nonpayable",
      "type": "function"
    },
    {
      "inputs": [
        {
          "internalType": "uint256",
          "name": "_maxPeriod",
          "type": "uint256"
        }
      ],
      "name": "setMaxMembershipPeriod",
      "outputs": [],
      "stateMutability": "nonpayable",
      "type": "function"
    },
    {
      "inputs": [
        {
          "internalType": "uint256",
          "name": "_max",
          "type": "uint256"
        }
      ],
      "name": "setMaxMintedNFTs",
      "outputs": [],
      "stateMutability": "nonpayable",
      "type": "function"
    },
    {
      "inputs": [
        {
          "internalType": "address",
          "name": "_minter",
          "type": "address"
        },
        {
          "internalType": "bool",
          "name": "_nftsActive",
          "type": "bool"
        }
      ],
      "name": "setNFTMinter",
      "outputs": [],
      "stateMutability": "nonpayable",
      "type": "function"
    },
    {
      "inputs": [
        {
          "internalType": "uint256",
          "name": "_threshold",
          "type": "uint256"
        }
      ],
      "name": "setNftThresholdPayment",
      "outputs": [],
      "stateMutability": "nonpayable",
      "type": "function"
    },
    {
      "inputs": [
        {
          "internalType": "address",
          "name": "newOwner",
          "type": "address"
        }
      ],
      "name": "transferOwnership",
      "outputs": [],
      "stateMutability": "nonpayable",
      "type": "function"
    },
    {
      "inputs": [
        {
          "internalType": "address",
          "name": "_account",
          "type": "address"
        },
        {
          "internalType": "uint256",
          "name": "_tokenID",
          "type": "uint256"
        }
      ],
      "name": "updateNFTData",
      "outputs": [],
      "stateMutability": "nonpayable",
      "type": "function"
    },
    {
      "inputs": [],
      "name": "withdrawDAI",
      "outputs": [],
      "stateMutability": "nonpayable",
      "type": "function"
    },
    {
      "inputs": [
        {
          "internalType": "uint256",
          "name": "_amount",
          "type": "uint256"
        }
      ],
      "name": "withdrawFromAave",
      "outputs": [],
      "stateMutability": "nonpayable",
      "type": "function"
    }
  ],
  "bytecode": "0x60806040523480156200001157600080fd5b5060405162002c2038038062002c208339818101604052810190620000379190620003de565b620000576200004b6200029b60201b60201c565b620002a360201b60201c565b866006819055508360078190555084600b8190555085600a8190555082600460006101000a81548173ffffffffffffffffffffffffffffffffffffffff021916908373ffffffffffffffffffffffffffffffffffffffff16021790555082600560006101000a81548173ffffffffffffffffffffffffffffffffffffffff021916908373ffffffffffffffffffffffffffffffffffffffff16021790555081600360006101000a81548173ffffffffffffffffffffffffffffffffffffffff021916908373ffffffffffffffffffffffffffffffffffffffff16021790555080600160006101000a81548173ffffffffffffffffffffffffffffffffffffffff021916908373ffffffffffffffffffffffffffffffffffffffff16021790555080600260006101000a81548173ffffffffffffffffffffffffffffffffffffffff021916908373ffffffffffffffffffffffffffffffffffffffff160217905550600460009054906101000a900473ffffffffffffffffffffffffffffffffffffffff1673ffffffffffffffffffffffffffffffffffffffff1663095ea7b3837fffffffffffffffffffffffffffffffffffffffffffffffffffffffffffffffff6040518363ffffffff1660e01b815260040162000237929190620004b3565b602060405180830381600087803b1580156200025257600080fd5b505af115801562000267573d6000803e3d6000fd5b505050506040513d601f19601f820116820180604052508101906200028d9190620003ac565b50505050505050506200057d565b600033905090565b60008060009054906101000a900473ffffffffffffffffffffffffffffffffffffffff169050816000806101000a81548173ffffffffffffffffffffffffffffffffffffffff021916908373ffffffffffffffffffffffffffffffffffffffff1602179055508173ffffffffffffffffffffffffffffffffffffffff168173ffffffffffffffffffffffffffffffffffffffff167f8be0079c531659141344cd1fd0a4f28419497f9722a3daafe3b4186f6b6457e060405160405180910390a35050565b60008151905062000378816200052f565b92915050565b6000815190506200038f8162000549565b92915050565b600081519050620003a68162000563565b92915050565b600060208284031215620003c557620003c46200052a565b5b6000620003d5848285016200037e565b91505092915050565b600080600080600080600060e0888a0312156200040057620003ff6200052a565b5b6000620004108a828b0162000395565b9750506020620004238a828b0162000395565b9650506040620004368a828b0162000395565b9550506060620004498a828b0162000395565b94505060806200045c8a828b0162000367565b93505060a06200046f8a828b0162000367565b92505060c0620004828a828b0162000367565b91505092959891949750929550565b6200049c81620004e0565b82525050565b620004ad8162000520565b82525050565b6000604082019050620004ca600083018562000491565b620004d96020830184620004a2565b9392505050565b6000620004ed8262000500565b9050919050565b60008115159050919050565b600073ffffffffffffffffffffffffffffffffffffffff82169050919050565b6000819050919050565b600080fd5b6200053a81620004e0565b81146200054657600080fd5b50565b6200055481620004f4565b81146200056057600080fd5b50565b6200056e8162000520565b81146200057a57600080fd5b50565b612693806200058d6000396000f3fe608060405234801561001057600080fd5b50600436106101a95760003560e01c806358980a26116100f957806388b89a7d11610097578063d2720e6911610071578063d2720e691461044a578063dee0297f14610466578063f2fde38b14610482578063f515bae71461049e576101a9565b806388b89a7d146103f45780638da5cb5b14610410578063ad21f0081461042e576101a9565b806377377808116100d3578063773778081461036e5780637b7182ef1461039e57806383914540146103ba5780638443867e146103d8576101a9565b806358980a261461032a578063688f237b14610348578063715018a614610364576101a9565b80632c387275116101665780633c91292b116101405780633c91292b146102b857806340e0e9e2146102d45780634a0ab3db146102f057806354ba0f271461030e576101a9565b80632c3872751461024a57806334cac0511461026857806334d722c91461029a576101a9565b8063020bcc9e146101ae5780630af2c6ca146101b8578063113aa8b1146101d657806319683a7c146101f25780631dfda2e71461020e578063294bd7381461022c575b600080fd5b6101b66104bc565b005b6101c06106d2565b6040516101cd919061217d565b60405180910390f35b6101f060048036038101906101eb9190611c1a565b6106d8565b005b61020c60048036038101906102079190611c87565b6108d8565b005b6102166109b3565b604051610223919061217d565b60405180910390f35b6102346109b9565b604051610241919061217d565b60405180910390f35b6102526109bf565b60405161025f9190611f0b565b60405180910390f35b610282600480360381019061027d9190611c1a565b6109e5565b60405161029193929190612198565b60405180910390f35b6102a2610ac0565b6040516102af9190611f0b565b60405180910390f35b6102d260048036038101906102cd9190611c87565b610ae6565b005b6102ee60048036038101906102e99190611c87565b610fc8565b005b6102f86110a3565b6040516103059190612002565b60405180910390f35b61032860048036038101906103239190611c1a565b6110b6565b005b61033261122d565b60405161033f919061217d565b60405180910390f35b610362600480360381019061035d9190611cf4565b611233565b005b61036c6113c9565b005b61038860048036038101906103839190611c1a565b611451565b604051610395919061217d565b60405180910390f35b6103b860048036038101906103b39190611cf4565b61149a565b005b6103c2611520565b6040516103cf919061217d565b60405180910390f35b6103f260048036038101906103ed9190611cf4565b611528565b005b61040e60048036038101906104099190611cf4565b6115ae565b005b610418611634565b6040516104259190611f0b565b60405180910390f35b61044860048036038101906104439190611cf4565b61165d565b005b610464600480360381019061045f9190611cf4565b6116e3565b005b610480600480360381019061047b9190611c47565b61185b565b005b61049c60048036038101906104979190611c1a565b6119e7565b005b6104a6611adf565b6040516104b3919061217d565b60405180910390f35b6104c4611ae5565b73ffffffffffffffffffffffffffffffffffffffff166104e2611634565b73ffffffffffffffffffffffffffffffffffffffff1614610538576040517f08c379a000000000000000000000000000000000000000000000000000000000815260040161052f9061211d565b60405180910390fd5b600460009054906101000a900473ffffffffffffffffffffffffffffffffffffffff1673ffffffffffffffffffffffffffffffffffffffff1663a9059cbb33600460009054906101000a900473ffffffffffffffffffffffffffffffffffffffff1673ffffffffffffffffffffffffffffffffffffffff166370a08231306040518263ffffffff1660e01b81526004016105d29190611f0b565b60206040518083038186803b1580156105ea57600080fd5b505afa1580156105fe573d6000803e3d6000fd5b505050506040513d601f19601f820116820180604052508101906106229190611d21565b6040518363ffffffff1660e01b815260040161063f929190611f5d565b602060405180830381600087803b15801561065957600080fd5b505af115801561066d573d6000803e3d6000fd5b505050506040513d601f19601f820116820180604052508101906106919190611cc7565b6106d0576040517f08c379a00000000000000000000000000000000000000000000000000000000081526004016106c7906120dd565b60405180910390fd5b565b60095481565b6106e0611ae5565b73ffffffffffffffffffffffffffffffffffffffff166106fe611634565b73ffffffffffffffffffffffffffffffffffffffff1614610754576040517f08c379a000000000000000000000000000000000000000000000000000000000815260040161074b9061211d565b60405180910390fd5b600073ffffffffffffffffffffffffffffffffffffffff168173ffffffffffffffffffffffffffffffffffffffff1614156107c4576040517f08c379a00000000000000000000000000000000000000000000000000000000081526004016107bb9061203d565b60405180910390fd5b80600360006101000a81548173ffffffffffffffffffffffffffffffffffffffff021916908373ffffffffffffffffffffffffffffffffffffffff160217905550600460009054906101000a900473ffffffffffffffffffffffffffffffffffffffff1673ffffffffffffffffffffffffffffffffffffffff1663095ea7b3827fffffffffffffffffffffffffffffffffffffffffffffffffffffffffffffffff6040518363ffffffff1660e01b8152600401610882929190611f5d565b602060405180830381600087803b15801561089c57600080fd5b505af11580156108b0573d6000803e3d6000fd5b505050506040513d601f19601f820116820180604052508101906108d49190611cc7565b5050565b3373ffffffffffffffffffffffffffffffffffffffff16600260009054906101000a900473ffffffffffffffffffffffffffffffffffffffff1673ffffffffffffffffffffffffffffffffffffffff1614610968576040517f08c379a000000000000000000000000000000000000000000000000000000000815260040161095f9061209d565b60405180910390fd5b80600d60008473ffffffffffffffffffffffffffffffffffffffff1673ffffffffffffffffffffffffffffffffffffffff168152602001908152602001600020600101819055505050565b60065481565b600b5481565b600560009054906101000a900473ffffffffffffffffffffffffffffffffffffffff1681565b6000806000600d60008573ffffffffffffffffffffffffffffffffffffffff1673ffffffffffffffffffffffffffffffffffffffff16815260200190815260200160002060010154600d60008673ffffffffffffffffffffffffffffffffffffffff1673ffffffffffffffffffffffffffffffffffffffff16815260200190815260200160002060000154600d60008773ffffffffffffffffffffffffffffffffffffffff1673ffffffffffffffffffffffffffffffffffffffff168152602001908152602001600020600201549250925092509193909250565b600260009054906101000a900473ffffffffffffffffffffffffffffffffffffffff1681565b600073ffffffffffffffffffffffffffffffffffffffff168273ffffffffffffffffffffffffffffffffffffffff161415610b56576040517f08c379a0000000000000000000000000000000000000000000000000000000008152600401610b4d906120fd565b60405180910390fd5b60008111610b99576040517f08c379a0000000000000000000000000000000000000000000000000000000008152600401610b90906120bd565b60405180910390fd5b600460009054906101000a900473ffffffffffffffffffffffffffffffffffffffff1673ffffffffffffffffffffffffffffffffffffffff166323b872dd3330846040518463ffffffff1660e01b8152600401610bf893929190611f26565b602060405180830381600087803b158015610c1257600080fd5b505af1158015610c26573d6000803e3d6000fd5b505050506040513d601f19601f82011682018060405250810190610c4a9190611cc7565b610c89576040517f08c379a0000000000000000000000000000000000000000000000000000000008152600401610c809061205d565b60405180910390fd5b6000600654826301e13380610c9e9190612267565b610ca89190612236565b905042600c60008573ffffffffffffffffffffffffffffffffffffffff1673ffffffffffffffffffffffffffffffffffffffff168152602001908152602001600020541015610d7657600754811115610d225760075490506006546301e13380600754610d159190612236565b610d1f9190612267565b91505b8042610d2e91906121e0565b600c60008573ffffffffffffffffffffffffffffffffffffffff1673ffffffffffffffffffffffffffffffffffffffff16815260200190815260200160002081905550610e55565b6000600c60008573ffffffffffffffffffffffffffffffffffffffff1673ffffffffffffffffffffffffffffffffffffffff1681526020019081526020016000205460075442610dc691906121e0565b610dd091906122c1565b905080821115610dfd578091506006546301e1338082610df09190612236565b610dfa9190612267565b92505b81600c60008673ffffffffffffffffffffffffffffffffffffffff1673ffffffffffffffffffffffffffffffffffffffff1681526020019081526020016000206000828254610e4c91906121e0565b92505081905550505b600860009054906101000a900460ff168015610e735750600b548210155b8015610ec95750600e60008473ffffffffffffffffffffffffffffffffffffffff1673ffffffffffffffffffffffffffffffffffffffff16815260200190815260200160002060009054906101000a900460ff16155b8015610ed85750600a54600954105b15610fc3576001600e60008573ffffffffffffffffffffffffffffffffffffffff1673ffffffffffffffffffffffffffffffffffffffff16815260200190815260200160002060006101000a81548160ff021916908315150217905550600160009054906101000a900473ffffffffffffffffffffffffffffffffffffffff1673ffffffffffffffffffffffffffffffffffffffff166317e5883c846040518263ffffffff1660e01b8152600401610f909190611f0b565b600060405180830381600087803b158015610faa57600080fd5b505af1158015610fbe573d6000803e3d6000fd5b505050505b505050565b3373ffffffffffffffffffffffffffffffffffffffff16600260009054906101000a900473ffffffffffffffffffffffffffffffffffffffff1673ffffffffffffffffffffffffffffffffffffffff1614611058576040517f08c379a000000000000000000000000000000000000000000000000000000000815260040161104f9061209d565b60405180910390fd5b80600d60008473ffffffffffffffffffffffffffffffffffffffff1673ffffffffffffffffffffffffffffffffffffffff168152602001908152602001600020600201819055505050565b600860009054906101000a900460ff1681565b6000600d60008373ffffffffffffffffffffffffffffffffffffffff1673ffffffffffffffffffffffffffffffffffffffff16815260200190815260200160002060010154141561113c576040517f08c379a00000000000000000000000000000000000000000000000000000000081526004016111339061201d565b60405180910390fd5b600160009054906101000a900473ffffffffffffffffffffffffffffffffffffffff1673ffffffffffffffffffffffffffffffffffffffff166354ba0f27826040518263ffffffff1660e01b81526004016111979190611f0b565b600060405180830381600087803b1580156111b157600080fd5b505af11580156111c5573d6000803e3d6000fd5b50505050600960008154809291906111dc9061235d565b9190505550600954600d60008373ffffffffffffffffffffffffffffffffffffffff1673ffffffffffffffffffffffffffffffffffffffff1681526020019081526020016000206000018190555050565b60075481565b61123b611ae5565b73ffffffffffffffffffffffffffffffffffffffff16611259611634565b73ffffffffffffffffffffffffffffffffffffffff16146112af576040517f08c379a00000000000000000000000000000000000000000000000000000000081526004016112a69061211d565b60405180910390fd5b600081116112f2576040517f08c379a00000000000000000000000000000000000000000000000000000000081526004016112e99061213d565b60405180910390fd5b600360009054906101000a900473ffffffffffffffffffffffffffffffffffffffff1673ffffffffffffffffffffffffffffffffffffffff166369328dec600560009054906101000a900473ffffffffffffffffffffffffffffffffffffffff1683306040518463ffffffff1660e01b815260040161137393929190611f86565b602060405180830381600087803b15801561138d57600080fd5b505af11580156113a1573d6000803e3d6000fd5b505050506040513d601f19601f820116820180604052508101906113c59190611d21565b5050565b6113d1611ae5565b73ffffffffffffffffffffffffffffffffffffffff166113ef611634565b73ffffffffffffffffffffffffffffffffffffffff1614611445576040517f08c379a000000000000000000000000000000000000000000000000000000000815260040161143c9061211d565b60405180910390fd5b61144f6000611aed565b565b6000600c60008373ffffffffffffffffffffffffffffffffffffffff1673ffffffffffffffffffffffffffffffffffffffff168152602001908152602001600020549050919050565b6114a2611ae5565b73ffffffffffffffffffffffffffffffffffffffff166114c0611634565b73ffffffffffffffffffffffffffffffffffffffff1614611516576040517f08c379a000000000000000000000000000000000000000000000000000000000815260040161150d9061211d565b60405180910390fd5b8060078190555050565b6301e1338081565b611530611ae5565b73ffffffffffffffffffffffffffffffffffffffff1661154e611634565b73ffffffffffffffffffffffffffffffffffffffff16146115a4576040517f08c379a000000000000000000000000000000000000000000000000000000000815260040161159b9061211d565b60405180910390fd5b80600a8190555050565b6115b6611ae5565b73ffffffffffffffffffffffffffffffffffffffff166115d4611634565b73ffffffffffffffffffffffffffffffffffffffff161461162a576040517f08c379a00000000000000000000000000000000000000000000000000000000081526004016116219061211d565b60405180910390fd5b8060068190555050565b60008060009054906101000a900473ffffffffffffffffffffffffffffffffffffffff16905090565b611665611ae5565b73ffffffffffffffffffffffffffffffffffffffff16611683611634565b73ffffffffffffffffffffffffffffffffffffffff16146116d9576040517f08c379a00000000000000000000000000000000000000000000000000000000081526004016116d09061211d565b60405180910390fd5b80600b8190555050565b6116eb611ae5565b73ffffffffffffffffffffffffffffffffffffffff16611709611634565b73ffffffffffffffffffffffffffffffffffffffff161461175f576040517f08c379a00000000000000000000000000000000000000000000000000000000081526004016117569061211d565b60405180910390fd5b600081116117a2576040517f08c379a00000000000000000000000000000000000000000000000000000000081526004016117999061215d565b60405180910390fd5b600360009054906101000a900473ffffffffffffffffffffffffffffffffffffffff1673ffffffffffffffffffffffffffffffffffffffff1663e8eda9df600560009054906101000a900473ffffffffffffffffffffffffffffffffffffffff16833060006040518563ffffffff1660e01b81526004016118269493929190611fbd565b600060405180830381600087803b15801561184057600080fd5b505af1158015611854573d6000803e3d6000fd5b5050505050565b611863611ae5565b73ffffffffffffffffffffffffffffffffffffffff16611881611634565b73ffffffffffffffffffffffffffffffffffffffff16146118d7576040517f08c379a00000000000000000000000000000000000000000000000000000000081526004016118ce9061211d565b60405180910390fd5b600073ffffffffffffffffffffffffffffffffffffffff168273ffffffffffffffffffffffffffffffffffffffff161415611947576040517f08c379a000000000000000000000000000000000000000000000000000000000815260040161193e9061203d565b60405180910390fd5b81600160006101000a81548173ffffffffffffffffffffffffffffffffffffffff021916908373ffffffffffffffffffffffffffffffffffffffff16021790555081600260006101000a81548173ffffffffffffffffffffffffffffffffffffffff021916908373ffffffffffffffffffffffffffffffffffffffff16021790555080600860006101000a81548160ff0219169083151502179055505050565b6119ef611ae5565b73ffffffffffffffffffffffffffffffffffffffff16611a0d611634565b73ffffffffffffffffffffffffffffffffffffffff1614611a63576040517f08c379a0000000000000000000000000000000000000000000000000000000008152600401611a5a9061211d565b60405180910390fd5b600073ffffffffffffffffffffffffffffffffffffffff168173ffffffffffffffffffffffffffffffffffffffff161415611ad3576040517f08c379a0000000000000000000000000000000000000000000000000000000008152600401611aca9061207d565b60405180910390fd5b611adc81611aed565b50565b600a5481565b600033905090565b60008060009054906101000a900473ffffffffffffffffffffffffffffffffffffffff169050816000806101000a81548173ffffffffffffffffffffffffffffffffffffffff021916908373ffffffffffffffffffffffffffffffffffffffff1602179055508173ffffffffffffffffffffffffffffffffffffffff168173ffffffffffffffffffffffffffffffffffffffff167f8be0079c531659141344cd1fd0a4f28419497f9722a3daafe3b4186f6b6457e060405160405180910390a35050565b600081359050611bc081612618565b92915050565b600081359050611bd58161262f565b92915050565b600081519050611bea8161262f565b92915050565b600081359050611bff81612646565b92915050565b600081519050611c1481612646565b92915050565b600060208284031215611c3057611c2f612404565b5b6000611c3e84828501611bb1565b91505092915050565b60008060408385031215611c5e57611c5d612404565b5b6000611c6c85828601611bb1565b9250506020611c7d85828601611bc6565b9150509250929050565b60008060408385031215611c9e57611c9d612404565b5b6000611cac85828601611bb1565b9250506020611cbd85828601611bf0565b9150509250929050565b600060208284031215611cdd57611cdc612404565b5b6000611ceb84828501611bdb565b91505092915050565b600060208284031215611d0a57611d09612404565b5b6000611d1884828501611bf0565b91505092915050565b600060208284031215611d3757611d36612404565b5b6000611d4584828501611c05565b91505092915050565b611d57816122f5565b82525050565b611d6681612307565b82525050565b611d758161234b565b82525050565b6000611d886014836121cf565b9150611d9382612409565b602082019050919050565b6000611dab601d836121cf565b9150611db682612432565b602082019050919050565b6000611dce6015836121cf565b9150611dd98261245b565b602082019050919050565b6000611df16026836121cf565b9150611dfc82612484565b604082019050919050565b6000611e146020836121cf565b9150611e1f826124d3565b602082019050919050565b6000611e376020836121cf565b9150611e42826124fc565b602082019050919050565b6000611e5a601a836121cf565b9150611e6582612525565b602082019050919050565b6000611e7d6023836121cf565b9150611e888261254e565b604082019050919050565b6000611ea06020836121cf565b9150611eab8261259d565b602082019050919050565b6000611ec3601e836121cf565b9150611ece826125c6565b602082019050919050565b6000611ee6601d836121cf565b9150611ef1826125ef565b602082019050919050565b611f0581612341565b82525050565b6000602082019050611f206000830184611d4e565b92915050565b6000606082019050611f3b6000830186611d4e565b611f486020830185611d4e565b611f556040830184611efc565b949350505050565b6000604082019050611f726000830185611d4e565b611f7f6020830184611efc565b9392505050565b6000606082019050611f9b6000830186611d4e565b611fa86020830185611efc565b611fb56040830184611d4e565b949350505050565b6000608082019050611fd26000830187611d4e565b611fdf6020830186611efc565b611fec6040830185611d4e565b611ff96060830184611d6c565b95945050505050565b60006020820190506120176000830184611d5d565b92915050565b6000602082019050818103600083015261203681611d7b565b9050919050565b6000602082019050818103600083015261205681611d9e565b9050919050565b6000602082019050818103600083015261207681611dc1565b9050919050565b6000602082019050818103600083015261209681611de4565b9050919050565b600060208201905081810360008301526120b681611e07565b9050919050565b600060208201905081810360008301526120d681611e2a565b9050919050565b600060208201905081810360008301526120f681611e4d565b9050919050565b6000602082019050818103600083015261211681611e70565b9050919050565b6000602082019050818103600083015261213681611e93565b9050919050565b6000602082019050818103600083015261215681611eb6565b9050919050565b6000602082019050818103600083015261217681611ed9565b9050919050565b60006020820190506121926000830184611efc565b92915050565b60006060820190506121ad6000830186611efc565b6121ba6020830185611efc565b6121c76040830184611efc565b949350505050565b600082825260208201905092915050565b60006121eb82612341565b91506121f683612341565b9250827fffffffffffffffffffffffffffffffffffffffffffffffffffffffffffffffff0382111561222b5761222a6123a6565b5b828201905092915050565b600061224182612341565b915061224c83612341565b92508261225c5761225b6123d5565b5b828204905092915050565b600061227282612341565b915061227d83612341565b9250817fffffffffffffffffffffffffffffffffffffffffffffffffffffffffffffffff04831182151516156122b6576122b56123a6565b5b828202905092915050565b60006122cc82612341565b91506122d783612341565b9250828210156122ea576122e96123a6565b5b828203905092915050565b600061230082612321565b9050919050565b60008115159050919050565b600061ffff82169050919050565b600073ffffffffffffffffffffffffffffffffffffffff82169050919050565b6000819050919050565b600061235682612313565b9050919050565b600061236882612341565b91507fffffffffffffffffffffffffffffffffffffffffffffffffffffffffffffffff82141561239b5761239a6123a6565b5b600182019050919050565b7f4e487b7100000000000000000000000000000000000000000000000000000000600052601160045260246000fd5b7f4e487b7100000000000000000000000000000000000000000000000000000000600052601260045260246000fd5b600080fd5b7f46455252593a2043414e54204d494e54204e4654000000000000000000000000600082015250565b7f46455252593a2043414e275420555345205a45524f2041444452455353000000600082015250565b7f46455252593a205041594d454e54204641494c45440000000000000000000000600082015250565b7f4f776e61626c653a206e6577206f776e657220697320746865207a65726f206160008201527f6464726573730000000000000000000000000000000000000000000000000000602082015250565b7f46455252593a204f4e4c59204d494e54455220495320415554484f52495a4544600082015250565b7f46455252593a2050415920534f4d452044414920544f20535542534352494245600082015250565b7f46455252593a20444149205749544844524157204641494c4544000000000000600082015250565b7f46455252593a205a45524f20414444524553532043414e27542053554253435260008201527f4942450000000000000000000000000000000000000000000000000000000000602082015250565b7f4f776e61626c653a2063616c6c6572206973206e6f7420746865206f776e6572600082015250565b7f46455252593a205749544844524157204d4f5245205448414e205a45524f0000600082015250565b7f46455252593a204445504f534954204d4f5245205448414e205a45524f000000600082015250565b612621816122f5565b811461262c57600080fd5b50565b61263881612307565b811461264357600080fd5b50565b61264f81612341565b811461265a57600080fd5b5056fea2646970667358221220168f8f0f59763a55d83b061dfed22cbbdd99d210fbf6c26e034374c04e57877764736f6c63430008060033",
  "linkReferences": {},
  "deployedLinkReferences": {}
}