{
  "_format": "hh-sol-artifact-1",
  "contractName": "Ferry",
  "sourceName": "contracts/Ferry.sol",
  "abi": [
    {
      "inputs": [
        {
          "internalType": "uint256",
          "name": "_annualFee",
          "type": "uint256"
        },
        {
          "internalType": "uint256",
          "name": "_maxMintedNFTs",
          "type": "uint256"
        },
        {
          "internalType": "uint256",
          "name": "_nftThreshold",
          "type": "uint256"
        },
        {
          "internalType": "uint256",
          "name": "_maxMembershipPeriod",
          "type": "uint256"
        },
        {
          "internalType": "address",
          "name": "_dai",
          "type": "address"
        },
        {
          "internalType": "address",
          "name": "_lendingPool",
          "type": "address"
        },
        {
          "internalType": "address",
          "name": "_nftMinter",
          "type": "address"
        }
      ],
      "stateMutability": "nonpayable",
      "type": "constructor"
    },
    {
      "anonymous": false,
      "inputs": [
        {
          "indexed": true,
          "internalType": "address",
          "name": "account",
          "type": "address"
        },
        {
          "indexed": false,
          "internalType": "uint256",
          "name": "index",
          "type": "uint256"
        },
        {
          "indexed": false,
          "internalType": "uint256",
          "name": "tokenID",
          "type": "uint256"
        }
      ],
      "name": "NFTMinted",
      "type": "event"
    },
    {
      "anonymous": false,
      "inputs": [
        {
          "indexed": true,
          "internalType": "address",
          "name": "account",
          "type": "address"
        },
        {
          "indexed": false,
          "internalType": "uint256",
          "name": "randomNumber",
          "type": "uint256"
        }
      ],
      "name": "NFTNumberGenerated",
      "type": "event"
    },
    {
      "anonymous": false,
      "inputs": [
        {
          "indexed": true,
          "internalType": "address",
          "name": "previousOwner",
          "type": "address"
        },
        {
          "indexed": true,
          "internalType": "address",
          "name": "newOwner",
          "type": "address"
        }
      ],
      "name": "OwnershipTransferred",
      "type": "event"
    },
    {
      "anonymous": false,
      "inputs": [
        {
          "indexed": true,
          "internalType": "address",
          "name": "account",
          "type": "address"
        },
        {
          "indexed": false,
          "internalType": "uint256",
          "name": "amount",
          "type": "uint256"
        },
        {
          "indexed": false,
          "internalType": "uint256",
          "name": "expiry",
          "type": "uint256"
        }
      ],
      "name": "SubscriptionPaid",
      "type": "event"
    },
    {
      "inputs": [],
      "name": "YEAR",
      "outputs": [
        {
          "internalType": "uint256",
          "name": "",
          "type": "uint256"
        }
      ],
      "stateMutability": "view",
      "type": "function"
    },
    {
      "inputs": [],
      "name": "annualFee",
      "outputs": [
        {
          "internalType": "uint256",
          "name": "",
          "type": "uint256"
        }
      ],
      "stateMutability": "view",
      "type": "function"
    },
    {
      "inputs": [],
      "name": "daiAddress",
      "outputs": [
        {
          "internalType": "address",
          "name": "",
          "type": "address"
        }
      ],
      "stateMutability": "view",
      "type": "function"
    },
    {
      "inputs": [
        {
          "internalType": "uint256",
          "name": "_amount",
          "type": "uint256"
        }
      ],
      "name": "depositInAave",
      "outputs": [],
      "stateMutability": "nonpayable",
      "type": "function"
    },
    {
      "inputs": [
        {
          "internalType": "address",
          "name": "_account",
          "type": "address"
        }
      ],
      "name": "getAccountNFT",
      "outputs": [
        {
          "internalType": "uint256",
          "name": "randomNum",
          "type": "uint256"
        },
        {
          "internalType": "uint256",
          "name": "index",
          "type": "uint256"
        },
        {
          "internalType": "uint256",
          "name": "tokenID",
          "type": "uint256"
        }
      ],
      "stateMutability": "view",
      "type": "function"
    },
    {
      "inputs": [
        {
          "internalType": "address",
          "name": "_account",
          "type": "address"
        }
      ],
      "name": "getMembershipExpiryTime",
      "outputs": [
        {
          "internalType": "uint256",
          "name": "",
          "type": "uint256"
        }
      ],
      "stateMutability": "view",
      "type": "function"
    },
    {
      "inputs": [],
      "name": "maxMembershipPeriod",
      "outputs": [
        {
          "internalType": "uint256",
          "name": "",
          "type": "uint256"
        }
      ],
      "stateMutability": "view",
      "type": "function"
    },
    {
      "inputs": [],
      "name": "maxMintedNFTs",
      "outputs": [
        {
          "internalType": "uint256",
          "name": "",
          "type": "uint256"
        }
      ],
      "stateMutability": "view",
      "type": "function"
    },
    {
      "inputs": [
        {
          "internalType": "address",
          "name": "_account",
          "type": "address"
        }
      ],
      "name": "mintNFT",
      "outputs": [],
      "stateMutability": "nonpayable",
      "type": "function"
    },
    {
      "inputs": [],
      "name": "minterAddress",
      "outputs": [
        {
          "internalType": "address",
          "name": "",
          "type": "address"
        }
      ],
      "stateMutability": "view",
      "type": "function"
    },
    {
      "inputs": [],
      "name": "nftCount",
      "outputs": [
        {
          "internalType": "uint256",
          "name": "",
          "type": "uint256"
        }
      ],
      "stateMutability": "view",
      "type": "function"
    },
    {
      "inputs": [
        {
          "internalType": "address",
          "name": "_account",
          "type": "address"
        },
        {
          "internalType": "uint256",
          "name": "_randomNum",
          "type": "uint256"
        }
      ],
      "name": "nftCreatedCallback",
      "outputs": [],
      "stateMutability": "nonpayable",
      "type": "function"
    },
    {
      "inputs": [],
      "name": "nftThresholdPayment",
      "outputs": [
        {
          "internalType": "uint256",
          "name": "",
          "type": "uint256"
        }
      ],
      "stateMutability": "view",
      "type": "function"
    },
    {
      "inputs": [],
      "name": "nftsActive",
      "outputs": [
        {
          "internalType": "bool",
          "name": "",
          "type": "bool"
        }
      ],
      "stateMutability": "view",
      "type": "function"
    },
    {
      "inputs": [],
      "name": "owner",
      "outputs": [
        {
          "internalType": "address",
          "name": "",
          "type": "address"
        }
      ],
      "stateMutability": "view",
      "type": "function"
    },
    {
      "inputs": [
        {
          "internalType": "address",
          "name": "_account",
          "type": "address"
        },
        {
          "internalType": "uint256",
          "name": "_amount",
          "type": "uint256"
        }
      ],
      "name": "paySubscription",
      "outputs": [],
      "stateMutability": "nonpayable",
      "type": "function"
    },
    {
      "inputs": [],
      "name": "renounceOwnership",
      "outputs": [],
      "stateMutability": "nonpayable",
      "type": "function"
    },
    {
      "inputs": [
        {
          "internalType": "uint256",
          "name": "_annualFee",
          "type": "uint256"
        }
      ],
      "name": "setAnnualFee",
      "outputs": [],
      "stateMutability": "nonpayable",
      "type": "function"
    },
    {
      "inputs": [
        {
          "internalType": "address",
          "name": "_lendingPool",
          "type": "address"
        }
      ],
      "name": "setLendingPool",
      "outputs": [],
      "stateMutability": "nonpayable",
      "type": "function"
    },
    {
      "inputs": [
        {
          "internalType": "uint256",
          "name": "_maxPeriod",
          "type": "uint256"
        }
      ],
      "name": "setMaxMembershipPeriod",
      "outputs": [],
      "stateMutability": "nonpayable",
      "type": "function"
    },
    {
      "inputs": [
        {
          "internalType": "uint256",
          "name": "_max",
          "type": "uint256"
        }
      ],
      "name": "setMaxMintedNFTs",
      "outputs": [],
      "stateMutability": "nonpayable",
      "type": "function"
    },
    {
      "inputs": [
        {
          "internalType": "address",
          "name": "_minter",
          "type": "address"
        },
        {
          "internalType": "bool",
          "name": "_nftsActive",
          "type": "bool"
        }
      ],
      "name": "setNFTMinter",
      "outputs": [],
      "stateMutability": "nonpayable",
      "type": "function"
    },
    {
      "inputs": [
        {
          "internalType": "uint256",
          "name": "_threshold",
          "type": "uint256"
        }
      ],
      "name": "setNftThresholdPayment",
      "outputs": [],
      "stateMutability": "nonpayable",
      "type": "function"
    },
    {
      "inputs": [
        {
          "internalType": "address",
          "name": "newOwner",
          "type": "address"
        }
      ],
      "name": "transferOwnership",
      "outputs": [],
      "stateMutability": "nonpayable",
      "type": "function"
    },
    {
      "inputs": [
        {
          "internalType": "address",
          "name": "_account",
          "type": "address"
        },
        {
          "internalType": "uint256",
          "name": "_tokenID",
          "type": "uint256"
        }
      ],
      "name": "updateNFTData",
      "outputs": [],
      "stateMutability": "nonpayable",
      "type": "function"
    },
    {
      "inputs": [],
      "name": "withdrawDAI",
      "outputs": [],
      "stateMutability": "nonpayable",
      "type": "function"
    },
    {
      "inputs": [
        {
          "internalType": "uint256",
          "name": "_amount",
          "type": "uint256"
        }
      ],
      "name": "withdrawFromAave",
      "outputs": [],
      "stateMutability": "nonpayable",
      "type": "function"
    }
  ],
  "bytecode": "0x60806040523480156200001157600080fd5b5060405162002dc638038062002dc68339818101604052810190620000379190620003de565b620000576200004b6200029b60201b60201c565b620002a360201b60201c565b866006819055508360078190555084600b8190555085600a8190555082600460006101000a81548173ffffffffffffffffffffffffffffffffffffffff021916908373ffffffffffffffffffffffffffffffffffffffff16021790555082600560006101000a81548173ffffffffffffffffffffffffffffffffffffffff021916908373ffffffffffffffffffffffffffffffffffffffff16021790555081600360006101000a81548173ffffffffffffffffffffffffffffffffffffffff021916908373ffffffffffffffffffffffffffffffffffffffff16021790555080600160006101000a81548173ffffffffffffffffffffffffffffffffffffffff021916908373ffffffffffffffffffffffffffffffffffffffff16021790555080600260006101000a81548173ffffffffffffffffffffffffffffffffffffffff021916908373ffffffffffffffffffffffffffffffffffffffff160217905550600460009054906101000a900473ffffffffffffffffffffffffffffffffffffffff1673ffffffffffffffffffffffffffffffffffffffff1663095ea7b3837fffffffffffffffffffffffffffffffffffffffffffffffffffffffffffffffff6040518363ffffffff1660e01b815260040162000237929190620004b3565b602060405180830381600087803b1580156200025257600080fd5b505af115801562000267573d6000803e3d6000fd5b505050506040513d601f19601f820116820180604052508101906200028d9190620003ac565b50505050505050506200057d565b600033905090565b60008060009054906101000a900473ffffffffffffffffffffffffffffffffffffffff169050816000806101000a81548173ffffffffffffffffffffffffffffffffffffffff021916908373ffffffffffffffffffffffffffffffffffffffff1602179055508173ffffffffffffffffffffffffffffffffffffffff168173ffffffffffffffffffffffffffffffffffffffff167f8be0079c531659141344cd1fd0a4f28419497f9722a3daafe3b4186f6b6457e060405160405180910390a35050565b60008151905062000378816200052f565b92915050565b6000815190506200038f8162000549565b92915050565b600081519050620003a68162000563565b92915050565b600060208284031215620003c557620003c46200052a565b5b6000620003d5848285016200037e565b91505092915050565b600080600080600080600060e0888a0312156200040057620003ff6200052a565b5b6000620004108a828b0162000395565b9750506020620004238a828b0162000395565b9650506040620004368a828b0162000395565b9550506060620004498a828b0162000395565b94505060806200045c8a828b0162000367565b93505060a06200046f8a828b0162000367565b92505060c0620004828a828b0162000367565b91505092959891949750929550565b6200049c81620004e0565b82525050565b620004ad8162000520565b82525050565b6000604082019050620004ca600083018562000491565b620004d96020830184620004a2565b9392505050565b6000620004ed8262000500565b9050919050565b60008115159050919050565b600073ffffffffffffffffffffffffffffffffffffffff82169050919050565b6000819050919050565b600080fd5b6200053a81620004e0565b81146200054657600080fd5b50565b6200055481620004f4565b81146200056057600080fd5b50565b6200056e8162000520565b81146200057a57600080fd5b50565b612839806200058d6000396000f3fe608060405234801561001057600080fd5b50600436106101a95760003560e01c806358980a26116100f957806388b89a7d11610097578063d2720e6911610071578063d2720e691461044a578063dee0297f14610466578063f2fde38b14610482578063f515bae71461049e576101a9565b806388b89a7d146103f45780638da5cb5b14610410578063ad21f0081461042e576101a9565b806377377808116100d3578063773778081461036e5780637b7182ef1461039e57806383914540146103ba5780638443867e146103d8576101a9565b806358980a261461032a578063688f237b14610348578063715018a614610364576101a9565b80632c387275116101665780633c91292b116101405780633c91292b146102b857806340e0e9e2146102d45780634a0ab3db146102f057806354ba0f271461030e576101a9565b80632c3872751461024a57806334cac0511461026857806334d722c91461029a576101a9565b8063020bcc9e146101ae5780630af2c6ca146101b8578063113aa8b1146101d657806319683a7c146101f25780631dfda2e71461020e578063294bd7381461022c575b600080fd5b6101b66104bc565b005b6101c06106d2565b6040516101cd91906122fa565b60405180910390f35b6101f060048036038101906101eb9190611d97565b6106d8565b005b61020c60048036038101906102079190611e04565b6108d8565b005b610216610a01565b60405161022391906122fa565b60405180910390f35b610234610a07565b60405161024191906122fa565b60405180910390f35b610252610a0d565b60405161025f9190612088565b60405180910390f35b610282600480360381019061027d9190611d97565b610a33565b6040516102919392919061233e565b60405180910390f35b6102a2610b0e565b6040516102af9190612088565b60405180910390f35b6102d260048036038101906102cd9190611e04565b610b34565b005b6102ee60048036038101906102e99190611e04565b6110a5565b005b6102f86111d2565b604051610305919061217f565b60405180910390f35b61032860048036038101906103239190611d97565b6111e5565b005b6103326113aa565b60405161033f91906122fa565b60405180910390f35b610362600480360381019061035d9190611e71565b6113b0565b005b61036c611546565b005b61038860048036038101906103839190611d97565b6115ce565b60405161039591906122fa565b60405180910390f35b6103b860048036038101906103b39190611e71565b611617565b005b6103c261169d565b6040516103cf91906122fa565b60405180910390f35b6103f260048036038101906103ed9190611e71565b6116a5565b005b61040e60048036038101906104099190611e71565b61172b565b005b6104186117b1565b6040516104259190612088565b60405180910390f35b61044860048036038101906104439190611e71565b6117da565b005b610464600480360381019061045f9190611e71565b611860565b005b610480600480360381019061047b9190611dc4565b6119d8565b005b61049c60048036038101906104979190611d97565b611b64565b005b6104a6611c5c565b6040516104b391906122fa565b60405180910390f35b6104c4611c62565b73ffffffffffffffffffffffffffffffffffffffff166104e26117b1565b73ffffffffffffffffffffffffffffffffffffffff1614610538576040517f08c379a000000000000000000000000000000000000000000000000000000000815260040161052f9061229a565b60405180910390fd5b600460009054906101000a900473ffffffffffffffffffffffffffffffffffffffff1673ffffffffffffffffffffffffffffffffffffffff1663a9059cbb33600460009054906101000a900473ffffffffffffffffffffffffffffffffffffffff1673ffffffffffffffffffffffffffffffffffffffff166370a08231306040518263ffffffff1660e01b81526004016105d29190612088565b60206040518083038186803b1580156105ea57600080fd5b505afa1580156105fe573d6000803e3d6000fd5b505050506040513d601f19601f820116820180604052508101906106229190611e9e565b6040518363ffffffff1660e01b815260040161063f9291906120da565b602060405180830381600087803b15801561065957600080fd5b505af115801561066d573d6000803e3d6000fd5b505050506040513d601f19601f820116820180604052508101906106919190611e44565b6106d0576040517f08c379a00000000000000000000000000000000000000000000000000000000081526004016106c79061225a565b60405180910390fd5b565b60095481565b6106e0611c62565b73ffffffffffffffffffffffffffffffffffffffff166106fe6117b1565b73ffffffffffffffffffffffffffffffffffffffff1614610754576040517f08c379a000000000000000000000000000000000000000000000000000000000815260040161074b9061229a565b60405180910390fd5b600073ffffffffffffffffffffffffffffffffffffffff168173ffffffffffffffffffffffffffffffffffffffff1614156107c4576040517f08c379a00000000000000000000000000000000000000000000000000000000081526004016107bb906121ba565b60405180910390fd5b80600360006101000a81548173ffffffffffffffffffffffffffffffffffffffff021916908373ffffffffffffffffffffffffffffffffffffffff160217905550600460009054906101000a900473ffffffffffffffffffffffffffffffffffffffff1673ffffffffffffffffffffffffffffffffffffffff1663095ea7b3827fffffffffffffffffffffffffffffffffffffffffffffffffffffffffffffffff6040518363ffffffff1660e01b81526004016108829291906120da565b602060405180830381600087803b15801561089c57600080fd5b505af11580156108b0573d6000803e3d6000fd5b505050506040513d601f19601f820116820180604052508101906108d49190611e44565b5050565b3373ffffffffffffffffffffffffffffffffffffffff16600260009054906101000a900473ffffffffffffffffffffffffffffffffffffffff1673ffffffffffffffffffffffffffffffffffffffff1614610968576040517f08c379a000000000000000000000000000000000000000000000000000000000815260040161095f9061221a565b60405180910390fd5b80600d60008473ffffffffffffffffffffffffffffffffffffffff1673ffffffffffffffffffffffffffffffffffffffff168152602001908152602001600020600101819055508173ffffffffffffffffffffffffffffffffffffffff167fe9c455aa7a000d120ca8d5f98894b63c6fc07c55d379bd98280997c258409d13826040516109f591906122fa565b60405180910390a25050565b60065481565b600b5481565b600560009054906101000a900473ffffffffffffffffffffffffffffffffffffffff1681565b6000806000600d60008573ffffffffffffffffffffffffffffffffffffffff1673ffffffffffffffffffffffffffffffffffffffff16815260200190815260200160002060010154600d60008673ffffffffffffffffffffffffffffffffffffffff1673ffffffffffffffffffffffffffffffffffffffff16815260200190815260200160002060000154600d60008773ffffffffffffffffffffffffffffffffffffffff1673ffffffffffffffffffffffffffffffffffffffff168152602001908152602001600020600201549250925092509193909250565b600260009054906101000a900473ffffffffffffffffffffffffffffffffffffffff1681565b600073ffffffffffffffffffffffffffffffffffffffff168273ffffffffffffffffffffffffffffffffffffffff161415610ba4576040517f08c379a0000000000000000000000000000000000000000000000000000000008152600401610b9b9061227a565b60405180910390fd5b60008111610be7576040517f08c379a0000000000000000000000000000000000000000000000000000000008152600401610bde9061223a565b60405180910390fd5b600460009054906101000a900473ffffffffffffffffffffffffffffffffffffffff1673ffffffffffffffffffffffffffffffffffffffff166323b872dd3330846040518463ffffffff1660e01b8152600401610c46939291906120a3565b602060405180830381600087803b158015610c6057600080fd5b505af1158015610c74573d6000803e3d6000fd5b505050506040513d601f19601f82011682018060405250810190610c989190611e44565b610cd7576040517f08c379a0000000000000000000000000000000000000000000000000000000008152600401610cce906121da565b60405180910390fd5b6000600654826301e13380610cec919061240d565b610cf691906123dc565b905042600c60008573ffffffffffffffffffffffffffffffffffffffff1673ffffffffffffffffffffffffffffffffffffffff168152602001908152602001600020541015610dc457600754811115610d705760075490506006546301e13380600754610d6391906123dc565b610d6d919061240d565b91505b8042610d7c9190612386565b600c60008573ffffffffffffffffffffffffffffffffffffffff1673ffffffffffffffffffffffffffffffffffffffff16815260200190815260200160002081905550610ea3565b6000600c60008573ffffffffffffffffffffffffffffffffffffffff1673ffffffffffffffffffffffffffffffffffffffff1681526020019081526020016000205460075442610e149190612386565b610e1e9190612467565b905080821115610e4b578091506006546301e1338082610e3e91906123dc565b610e48919061240d565b92505b81600c60008673ffffffffffffffffffffffffffffffffffffffff1673ffffffffffffffffffffffffffffffffffffffff1681526020019081526020016000206000828254610e9a9190612386565b92505081905550505b600860009054906101000a900460ff168015610ec15750600b548210155b8015610f175750600e60008473ffffffffffffffffffffffffffffffffffffffff1673ffffffffffffffffffffffffffffffffffffffff16815260200190815260200160002060009054906101000a900460ff16155b8015610f265750600a54600954105b15611011576001600e60008573ffffffffffffffffffffffffffffffffffffffff1673ffffffffffffffffffffffffffffffffffffffff16815260200190815260200160002060006101000a81548160ff021916908315150217905550600160009054906101000a900473ffffffffffffffffffffffffffffffffffffffff1673ffffffffffffffffffffffffffffffffffffffff166317e5883c846040518263ffffffff1660e01b8152600401610fde9190612088565b600060405180830381600087803b158015610ff857600080fd5b505af115801561100c573d6000803e3d6000fd5b505050505b8273ffffffffffffffffffffffffffffffffffffffff167f6cd9d6bebf8cc2076dd424f83deb0559d8774d1c44178b4f676f9d50709fb1be83600c60008773ffffffffffffffffffffffffffffffffffffffff1673ffffffffffffffffffffffffffffffffffffffff16815260200190815260200160002054604051611098929190612315565b60405180910390a2505050565b3373ffffffffffffffffffffffffffffffffffffffff16600260009054906101000a900473ffffffffffffffffffffffffffffffffffffffff1673ffffffffffffffffffffffffffffffffffffffff1614611135576040517f08c379a000000000000000000000000000000000000000000000000000000000815260040161112c9061221a565b60405180910390fd5b80600d60008473ffffffffffffffffffffffffffffffffffffffff1673ffffffffffffffffffffffffffffffffffffffff168152602001908152602001600020600201819055508173ffffffffffffffffffffffffffffffffffffffff167f3a8a89b59a31c39a36febecb987e0657ab7b7c73b60ebacb44dcb9886c2d5c8a600954836040516111c6929190612315565b60405180910390a25050565b600860009054906101000a900460ff1681565b6000600d60008373ffffffffffffffffffffffffffffffffffffffff1673ffffffffffffffffffffffffffffffffffffffff168152602001908152602001600020600101541415801561127a57506000600d60008373ffffffffffffffffffffffffffffffffffffffff1673ffffffffffffffffffffffffffffffffffffffff16815260200190815260200160002060000154145b6112b9576040517f08c379a00000000000000000000000000000000000000000000000000000000081526004016112b09061219a565b60405180910390fd5b600960008154809291906112cc90612503565b9190505550600954600d60008373ffffffffffffffffffffffffffffffffffffffff1673ffffffffffffffffffffffffffffffffffffffff16815260200190815260200160002060000181905550600160009054906101000a900473ffffffffffffffffffffffffffffffffffffffff1673ffffffffffffffffffffffffffffffffffffffff166354ba0f27826040518263ffffffff1660e01b81526004016113759190612088565b600060405180830381600087803b15801561138f57600080fd5b505af11580156113a3573d6000803e3d6000fd5b5050505050565b60075481565b6113b8611c62565b73ffffffffffffffffffffffffffffffffffffffff166113d66117b1565b73ffffffffffffffffffffffffffffffffffffffff161461142c576040517f08c379a00000000000000000000000000000000000000000000000000000000081526004016114239061229a565b60405180910390fd5b6000811161146f576040517f08c379a0000000000000000000000000000000000000000000000000000000008152600401611466906122ba565b60405180910390fd5b600360009054906101000a900473ffffffffffffffffffffffffffffffffffffffff1673ffffffffffffffffffffffffffffffffffffffff166369328dec600560009054906101000a900473ffffffffffffffffffffffffffffffffffffffff1683306040518463ffffffff1660e01b81526004016114f093929190612103565b602060405180830381600087803b15801561150a57600080fd5b505af115801561151e573d6000803e3d6000fd5b505050506040513d601f19601f820116820180604052508101906115429190611e9e565b5050565b61154e611c62565b73ffffffffffffffffffffffffffffffffffffffff1661156c6117b1565b73ffffffffffffffffffffffffffffffffffffffff16146115c2576040517f08c379a00000000000000000000000000000000000000000000000000000000081526004016115b99061229a565b60405180910390fd5b6115cc6000611c6a565b565b6000600c60008373ffffffffffffffffffffffffffffffffffffffff1673ffffffffffffffffffffffffffffffffffffffff168152602001908152602001600020549050919050565b61161f611c62565b73ffffffffffffffffffffffffffffffffffffffff1661163d6117b1565b73ffffffffffffffffffffffffffffffffffffffff1614611693576040517f08c379a000000000000000000000000000000000000000000000000000000000815260040161168a9061229a565b60405180910390fd5b8060078190555050565b6301e1338081565b6116ad611c62565b73ffffffffffffffffffffffffffffffffffffffff166116cb6117b1565b73ffffffffffffffffffffffffffffffffffffffff1614611721576040517f08c379a00000000000000000000000000000000000000000000000000000000081526004016117189061229a565b60405180910390fd5b80600a8190555050565b611733611c62565b73ffffffffffffffffffffffffffffffffffffffff166117516117b1565b73ffffffffffffffffffffffffffffffffffffffff16146117a7576040517f08c379a000000000000000000000000000000000000000000000000000000000815260040161179e9061229a565b60405180910390fd5b8060068190555050565b60008060009054906101000a900473ffffffffffffffffffffffffffffffffffffffff16905090565b6117e2611c62565b73ffffffffffffffffffffffffffffffffffffffff166118006117b1565b73ffffffffffffffffffffffffffffffffffffffff1614611856576040517f08c379a000000000000000000000000000000000000000000000000000000000815260040161184d9061229a565b60405180910390fd5b80600b8190555050565b611868611c62565b73ffffffffffffffffffffffffffffffffffffffff166118866117b1565b73ffffffffffffffffffffffffffffffffffffffff16146118dc576040517f08c379a00000000000000000000000000000000000000000000000000000000081526004016118d39061229a565b60405180910390fd5b6000811161191f576040517f08c379a0000000000000000000000000000000000000000000000000000000008152600401611916906122da565b60405180910390fd5b600360009054906101000a900473ffffffffffffffffffffffffffffffffffffffff1673ffffffffffffffffffffffffffffffffffffffff1663e8eda9df600560009054906101000a900473ffffffffffffffffffffffffffffffffffffffff16833060006040518563ffffffff1660e01b81526004016119a3949392919061213a565b600060405180830381600087803b1580156119bd57600080fd5b505af11580156119d1573d6000803e3d6000fd5b5050505050565b6119e0611c62565b73ffffffffffffffffffffffffffffffffffffffff166119fe6117b1565b73ffffffffffffffffffffffffffffffffffffffff1614611a54576040517f08c379a0000000000000000000000000000000000000000000000000000000008152600401611a4b9061229a565b60405180910390fd5b600073ffffffffffffffffffffffffffffffffffffffff168273ffffffffffffffffffffffffffffffffffffffff161415611ac4576040517f08c379a0000000000000000000000000000000000000000000000000000000008152600401611abb906121ba565b60405180910390fd5b81600160006101000a81548173ffffffffffffffffffffffffffffffffffffffff021916908373ffffffffffffffffffffffffffffffffffffffff16021790555081600260006101000a81548173ffffffffffffffffffffffffffffffffffffffff021916908373ffffffffffffffffffffffffffffffffffffffff16021790555080600860006101000a81548160ff0219169083151502179055505050565b611b6c611c62565b73ffffffffffffffffffffffffffffffffffffffff16611b8a6117b1565b73ffffffffffffffffffffffffffffffffffffffff1614611be0576040517f08c379a0000000000000000000000000000000000000000000000000000000008152600401611bd79061229a565b60405180910390fd5b600073ffffffffffffffffffffffffffffffffffffffff168173ffffffffffffffffffffffffffffffffffffffff161415611c50576040517f08c379a0000000000000000000000000000000000000000000000000000000008152600401611c47906121fa565b60405180910390fd5b611c5981611c6a565b50565b600a5481565b600033905090565b60008060009054906101000a900473ffffffffffffffffffffffffffffffffffffffff169050816000806101000a81548173ffffffffffffffffffffffffffffffffffffffff021916908373ffffffffffffffffffffffffffffffffffffffff1602179055508173ffffffffffffffffffffffffffffffffffffffff168173ffffffffffffffffffffffffffffffffffffffff167f8be0079c531659141344cd1fd0a4f28419497f9722a3daafe3b4186f6b6457e060405160405180910390a35050565b600081359050611d3d816127be565b92915050565b600081359050611d52816127d5565b92915050565b600081519050611d67816127d5565b92915050565b600081359050611d7c816127ec565b92915050565b600081519050611d91816127ec565b92915050565b600060208284031215611dad57611dac6125aa565b5b6000611dbb84828501611d2e565b91505092915050565b60008060408385031215611ddb57611dda6125aa565b5b6000611de985828601611d2e565b9250506020611dfa85828601611d43565b9150509250929050565b60008060408385031215611e1b57611e1a6125aa565b5b6000611e2985828601611d2e565b9250506020611e3a85828601611d6d565b9150509250929050565b600060208284031215611e5a57611e596125aa565b5b6000611e6884828501611d58565b91505092915050565b600060208284031215611e8757611e866125aa565b5b6000611e9584828501611d6d565b91505092915050565b600060208284031215611eb457611eb36125aa565b5b6000611ec284828501611d82565b91505092915050565b611ed48161249b565b82525050565b611ee3816124ad565b82525050565b611ef2816124f1565b82525050565b6000611f05601483612375565b9150611f10826125af565b602082019050919050565b6000611f28601d83612375565b9150611f33826125d8565b602082019050919050565b6000611f4b601583612375565b9150611f5682612601565b602082019050919050565b6000611f6e602683612375565b9150611f798261262a565b604082019050919050565b6000611f91602083612375565b9150611f9c82612679565b602082019050919050565b6000611fb4602083612375565b9150611fbf826126a2565b602082019050919050565b6000611fd7601a83612375565b9150611fe2826126cb565b602082019050919050565b6000611ffa602383612375565b9150612005826126f4565b604082019050919050565b600061201d602083612375565b915061202882612743565b602082019050919050565b6000612040601e83612375565b915061204b8261276c565b602082019050919050565b6000612063601d83612375565b915061206e82612795565b602082019050919050565b612082816124e7565b82525050565b600060208201905061209d6000830184611ecb565b92915050565b60006060820190506120b86000830186611ecb565b6120c56020830185611ecb565b6120d26040830184612079565b949350505050565b60006040820190506120ef6000830185611ecb565b6120fc6020830184612079565b9392505050565b60006060820190506121186000830186611ecb565b6121256020830185612079565b6121326040830184611ecb565b949350505050565b600060808201905061214f6000830187611ecb565b61215c6020830186612079565b6121696040830185611ecb565b6121766060830184611ee9565b95945050505050565b60006020820190506121946000830184611eda565b92915050565b600060208201905081810360008301526121b381611ef8565b9050919050565b600060208201905081810360008301526121d381611f1b565b9050919050565b600060208201905081810360008301526121f381611f3e565b9050919050565b6000602082019050818103600083015261221381611f61565b9050919050565b6000602082019050818103600083015261223381611f84565b9050919050565b6000602082019050818103600083015261225381611fa7565b9050919050565b6000602082019050818103600083015261227381611fca565b9050919050565b6000602082019050818103600083015261229381611fed565b9050919050565b600060208201905081810360008301526122b381612010565b9050919050565b600060208201905081810360008301526122d381612033565b9050919050565b600060208201905081810360008301526122f381612056565b9050919050565b600060208201905061230f6000830184612079565b92915050565b600060408201905061232a6000830185612079565b6123376020830184612079565b9392505050565b60006060820190506123536000830186612079565b6123606020830185612079565b61236d6040830184612079565b949350505050565b600082825260208201905092915050565b6000612391826124e7565b915061239c836124e7565b9250827fffffffffffffffffffffffffffffffffffffffffffffffffffffffffffffffff038211156123d1576123d061254c565b5b828201905092915050565b60006123e7826124e7565b91506123f2836124e7565b9250826124025761240161257b565b5b828204905092915050565b6000612418826124e7565b9150612423836124e7565b9250817fffffffffffffffffffffffffffffffffffffffffffffffffffffffffffffffff048311821515161561245c5761245b61254c565b5b828202905092915050565b6000612472826124e7565b915061247d836124e7565b9250828210156124905761248f61254c565b5b828203905092915050565b60006124a6826124c7565b9050919050565b60008115159050919050565b600061ffff82169050919050565b600073ffffffffffffffffffffffffffffffffffffffff82169050919050565b6000819050919050565b60006124fc826124b9565b9050919050565b600061250e826124e7565b91507fffffffffffffffffffffffffffffffffffffffffffffffffffffffffffffffff8214156125415761254061254c565b5b600182019050919050565b7f4e487b7100000000000000000000000000000000000000000000000000000000600052601160045260246000fd5b7f4e487b7100000000000000000000000000000000000000000000000000000000600052601260045260246000fd5b600080fd5b7f46455252593a2043414e54204d494e54204e4654000000000000000000000000600082015250565b7f46455252593a2043414e275420555345205a45524f2041444452455353000000600082015250565b7f46455252593a205041594d454e54204641494c45440000000000000000000000600082015250565b7f4f776e61626c653a206e6577206f776e657220697320746865207a65726f206160008201527f6464726573730000000000000000000000000000000000000000000000000000602082015250565b7f46455252593a204f4e4c59204d494e54455220495320415554484f52495a4544600082015250565b7f46455252593a2050415920534f4d452044414920544f20535542534352494245600082015250565b7f46455252593a20444149205749544844524157204641494c4544000000000000600082015250565b7f46455252593a205a45524f20414444524553532043414e27542053554253435260008201527f4942450000000000000000000000000000000000000000000000000000000000602082015250565b7f4f776e61626c653a2063616c6c6572206973206e6f7420746865206f776e6572600082015250565b7f46455252593a205749544844524157204d4f5245205448414e205a45524f0000600082015250565b7f46455252593a204445504f534954204d4f5245205448414e205a45524f000000600082015250565b6127c78161249b565b81146127d257600080fd5b50565b6127de816124ad565b81146127e957600080fd5b50565b6127f5816124e7565b811461280057600080fd5b5056fea26469706673582212204489b4c7a3f472967a771de9b923be9adc1cfcd2f7a6b9ecc7bd3abf08bdc6cc64736f6c63430008060033",
  "linkReferences": {},
  "deployedLinkReferences": {}
}