{
  "_format": "hh-sol-artifact-1",
  "contractName": "ShipHarbor",
  "sourceName": "contracts/ShipHarbor.sol",
  "abi": [
    {
      "inputs": [
        {
          "internalType": "contract IERC20",
          "name": "_ship",
          "type": "address"
        }
      ],
      "stateMutability": "nonpayable",
      "type": "constructor"
    },
    {
      "anonymous": false,
      "inputs": [
        {
          "indexed": true,
          "internalType": "address",
          "name": "owner",
          "type": "address"
        },
        {
          "indexed": true,
          "internalType": "address",
          "name": "spender",
          "type": "address"
        },
        {
          "indexed": false,
          "internalType": "uint256",
          "name": "value",
          "type": "uint256"
        }
      ],
      "name": "Approval",
      "type": "event"
    },
    {
      "anonymous": false,
      "inputs": [
        {
          "indexed": true,
          "internalType": "address",
          "name": "from",
          "type": "address"
        },
        {
          "indexed": true,
          "internalType": "address",
          "name": "to",
          "type": "address"
        },
        {
          "indexed": false,
          "internalType": "uint256",
          "name": "value",
          "type": "uint256"
        }
      ],
      "name": "Transfer",
      "type": "event"
    },
    {
      "inputs": [
        {
          "internalType": "address",
          "name": "owner",
          "type": "address"
        },
        {
          "internalType": "address",
          "name": "spender",
          "type": "address"
        }
      ],
      "name": "allowance",
      "outputs": [
        {
          "internalType": "uint256",
          "name": "",
          "type": "uint256"
        }
      ],
      "stateMutability": "view",
      "type": "function"
    },
    {
      "inputs": [
        {
          "internalType": "address",
          "name": "spender",
          "type": "address"
        },
        {
          "internalType": "uint256",
          "name": "amount",
          "type": "uint256"
        }
      ],
      "name": "approve",
      "outputs": [
        {
          "internalType": "bool",
          "name": "",
          "type": "bool"
        }
      ],
      "stateMutability": "nonpayable",
      "type": "function"
    },
    {
      "inputs": [
        {
          "internalType": "address",
          "name": "account",
          "type": "address"
        }
      ],
      "name": "balanceOf",
      "outputs": [
        {
          "internalType": "uint256",
          "name": "",
          "type": "uint256"
        }
      ],
      "stateMutability": "view",
      "type": "function"
    },
    {
      "inputs": [],
      "name": "decimals",
      "outputs": [
        {
          "internalType": "uint8",
          "name": "",
          "type": "uint8"
        }
      ],
      "stateMutability": "view",
      "type": "function"
    },
    {
      "inputs": [
        {
          "internalType": "address",
          "name": "spender",
          "type": "address"
        },
        {
          "internalType": "uint256",
          "name": "subtractedValue",
          "type": "uint256"
        }
      ],
      "name": "decreaseAllowance",
      "outputs": [
        {
          "internalType": "bool",
          "name": "",
          "type": "bool"
        }
      ],
      "stateMutability": "nonpayable",
      "type": "function"
    },
    {
      "inputs": [
        {
          "internalType": "uint256",
          "name": "_amount",
          "type": "uint256"
        }
      ],
      "name": "enter",
      "outputs": [],
      "stateMutability": "nonpayable",
      "type": "function"
    },
    {
      "inputs": [
        {
          "internalType": "address",
          "name": "spender",
          "type": "address"
        },
        {
          "internalType": "uint256",
          "name": "addedValue",
          "type": "uint256"
        }
      ],
      "name": "increaseAllowance",
      "outputs": [
        {
          "internalType": "bool",
          "name": "",
          "type": "bool"
        }
      ],
      "stateMutability": "nonpayable",
      "type": "function"
    },
    {
      "inputs": [
        {
          "internalType": "uint256",
          "name": "_share",
          "type": "uint256"
        }
      ],
      "name": "leave",
      "outputs": [],
      "stateMutability": "nonpayable",
      "type": "function"
    },
    {
      "inputs": [],
      "name": "name",
      "outputs": [
        {
          "internalType": "string",
          "name": "",
          "type": "string"
        }
      ],
      "stateMutability": "view",
      "type": "function"
    },
    {
      "inputs": [],
      "name": "ship",
      "outputs": [
        {
          "internalType": "contract IERC20",
          "name": "",
          "type": "address"
        }
      ],
      "stateMutability": "view",
      "type": "function"
    },
    {
      "inputs": [],
      "name": "symbol",
      "outputs": [
        {
          "internalType": "string",
          "name": "",
          "type": "string"
        }
      ],
      "stateMutability": "view",
      "type": "function"
    },
    {
      "inputs": [],
      "name": "totalSupply",
      "outputs": [
        {
          "internalType": "uint256",
          "name": "",
          "type": "uint256"
        }
      ],
      "stateMutability": "view",
      "type": "function"
    },
    {
      "inputs": [
        {
          "internalType": "address",
          "name": "recipient",
          "type": "address"
        },
        {
          "internalType": "uint256",
          "name": "amount",
          "type": "uint256"
        }
      ],
      "name": "transfer",
      "outputs": [
        {
          "internalType": "bool",
          "name": "",
          "type": "bool"
        }
      ],
      "stateMutability": "nonpayable",
      "type": "function"
    },
    {
      "inputs": [
        {
          "internalType": "address",
          "name": "sender",
          "type": "address"
        },
        {
          "internalType": "address",
          "name": "recipient",
          "type": "address"
        },
        {
          "internalType": "uint256",
          "name": "amount",
          "type": "uint256"
        }
      ],
      "name": "transferFrom",
      "outputs": [
        {
          "internalType": "bool",
          "name": "",
          "type": "bool"
        }
      ],
      "stateMutability": "nonpayable",
      "type": "function"
    }
  ],
  "bytecode": "0x60806040523480156200001157600080fd5b50604051620021fc380380620021fc8339818101604052810190620000379190620001e6565b6040518060400160405280600a81526020017f5374616b656453686970000000000000000000000000000000000000000000008152506040518060400160405280600581526020017f78534849500000000000000000000000000000000000000000000000000000008152508160039080519060200190620000bb9291906200011f565b508060049080519060200190620000d49291906200011f565b50505080600560006101000a81548173ffffffffffffffffffffffffffffffffffffffff021916908373ffffffffffffffffffffffffffffffffffffffff16021790555050620002e4565b8280546200012d9062000260565b90600052602060002090601f0160209004810192826200015157600085556200019d565b82601f106200016c57805160ff19168380011785556200019d565b828001600101855582156200019d579182015b828111156200019c5782518255916020019190600101906200017f565b5b509050620001ac9190620001b0565b5090565b5b80821115620001cb576000816000905550600101620001b1565b5090565b600081519050620001e081620002ca565b92915050565b600060208284031215620001ff57620001fe620002c5565b5b60006200020f84828501620001cf565b91505092915050565b6000620002258262000240565b9050919050565b6000620002398262000218565b9050919050565b600073ffffffffffffffffffffffffffffffffffffffff82169050919050565b600060028204905060018216806200027957607f821691505b6020821081141562000290576200028f62000296565b5b50919050565b7f4e487b7100000000000000000000000000000000000000000000000000000000600052602260045260246000fd5b600080fd5b620002d5816200022c565b8114620002e157600080fd5b50565b611f0880620002f46000396000f3fe608060405234801561001057600080fd5b50600436106100ea5760003560e01c806370a082311161008c578063a59f3e0c11610066578063a59f3e0c14610273578063a9059cbb1461028f578063b6bef7b3146102bf578063dd62ed3e146102dd576100ea565b806370a08231146101f557806395d89b4114610225578063a457c2d714610243576100ea565b806323b872dd116100c857806323b872dd1461015b578063313ce5671461018b57806339509351146101a957806367dfd4c9146101d9576100ea565b806306fdde03146100ef578063095ea7b31461010d57806318160ddd1461013d575b600080fd5b6100f761030d565b6040516101049190611753565b60405180910390f35b610127600480360381019061012291906113f9565b61039f565b604051610134919061171d565b60405180910390f35b6101456103bd565b60405161015291906118b5565b60405180910390f35b610175600480360381019061017091906113a6565b6103c7565b604051610182919061171d565b60405180910390f35b6101936104bf565b6040516101a091906118d0565b60405180910390f35b6101c360048036038101906101be91906113f9565b6104c8565b6040516101d0919061171d565b60405180910390f35b6101f360048036038101906101ee9190611466565b610574565b005b61020f600480360381019061020a9190611339565b610704565b60405161021c91906118b5565b60405180910390f35b61022d61074c565b60405161023a9190611753565b60405180910390f35b61025d600480360381019061025891906113f9565b6107de565b60405161026a919061171d565b60405180910390f35b61028d60048036038101906102889190611466565b6108c9565b005b6102a960048036038101906102a491906113f9565b610a85565b6040516102b6919061171d565b60405180910390f35b6102c7610aa3565b6040516102d49190611738565b60405180910390f35b6102f760048036038101906102f29190611366565b610ac9565b60405161030491906118b5565b60405180910390f35b60606003805461031c90611ac8565b80601f016020809104026020016040519081016040528092919081815260200182805461034890611ac8565b80156103955780601f1061036a57610100808354040283529160200191610395565b820191906000526020600020905b81548152906001019060200180831161037857829003601f168201915b5050505050905090565b60006103b36103ac610b50565b8484610b58565b6001905092915050565b6000600254905090565b60006103d4848484610d23565b6000600160008673ffffffffffffffffffffffffffffffffffffffff1673ffffffffffffffffffffffffffffffffffffffff168152602001908152602001600020600061041f610b50565b73ffffffffffffffffffffffffffffffffffffffff1673ffffffffffffffffffffffffffffffffffffffff1681526020019081526020016000205490508281101561049f576040517f08c379a0000000000000000000000000000000000000000000000000000000008152600401610496906117f5565b60405180910390fd5b6104b3856104ab610b50565b858403610b58565b60019150509392505050565b60006012905090565b600061056a6104d5610b50565b8484600160006104e3610b50565b73ffffffffffffffffffffffffffffffffffffffff1673ffffffffffffffffffffffffffffffffffffffff16815260200190815260200160002060008873ffffffffffffffffffffffffffffffffffffffff1673ffffffffffffffffffffffffffffffffffffffff168152602001908152602001600020546105659190611907565b610b58565b6001905092915050565b600061057e6103bd565b9050600081600560009054906101000a900473ffffffffffffffffffffffffffffffffffffffff1673ffffffffffffffffffffffffffffffffffffffff166370a08231306040518263ffffffff1660e01b81526004016105de91906116a2565b60206040518083038186803b1580156105f657600080fd5b505afa15801561060a573d6000803e3d6000fd5b505050506040513d601f19601f8201168201806040525081019061062e9190611493565b84610639919061198e565b610643919061195d565b905061064f3384610fa4565b600560009054906101000a900473ffffffffffffffffffffffffffffffffffffffff1673ffffffffffffffffffffffffffffffffffffffff1663a9059cbb33836040518363ffffffff1660e01b81526004016106ac9291906116f4565b602060405180830381600087803b1580156106c657600080fd5b505af11580156106da573d6000803e3d6000fd5b505050506040513d601f19601f820116820180604052508101906106fe9190611439565b50505050565b60008060008373ffffffffffffffffffffffffffffffffffffffff1673ffffffffffffffffffffffffffffffffffffffff168152602001908152602001600020549050919050565b60606004805461075b90611ac8565b80601f016020809104026020016040519081016040528092919081815260200182805461078790611ac8565b80156107d45780601f106107a9576101008083540402835291602001916107d4565b820191906000526020600020905b8154815290600101906020018083116107b757829003601f168201915b5050505050905090565b600080600160006107ed610b50565b73ffffffffffffffffffffffffffffffffffffffff1673ffffffffffffffffffffffffffffffffffffffff16815260200190815260200160002060008573ffffffffffffffffffffffffffffffffffffffff1673ffffffffffffffffffffffffffffffffffffffff168152602001908152602001600020549050828110156108aa576040517f08c379a00000000000000000000000000000000000000000000000000000000081526004016108a190611875565b60405180910390fd5b6108be6108b5610b50565b85858403610b58565b600191505092915050565b6000600560009054906101000a900473ffffffffffffffffffffffffffffffffffffffff1673ffffffffffffffffffffffffffffffffffffffff166370a08231306040518263ffffffff1660e01b815260040161092691906116a2565b60206040518083038186803b15801561093e57600080fd5b505afa158015610952573d6000803e3d6000fd5b505050506040513d601f19601f820116820180604052508101906109769190611493565b905060006109826103bd565b905060008114806109935750600082145b156109a7576109a2338461117b565b6109ce565b60008282856109b6919061198e565b6109c0919061195d565b90506109cc338261117b565b505b600560009054906101000a900473ffffffffffffffffffffffffffffffffffffffff1673ffffffffffffffffffffffffffffffffffffffff166323b872dd3330866040518463ffffffff1660e01b8152600401610a2d939291906116bd565b602060405180830381600087803b158015610a4757600080fd5b505af1158015610a5b573d6000803e3d6000fd5b505050506040513d601f19601f82011682018060405250810190610a7f9190611439565b50505050565b6000610a99610a92610b50565b8484610d23565b6001905092915050565b600560009054906101000a900473ffffffffffffffffffffffffffffffffffffffff1681565b6000600160008473ffffffffffffffffffffffffffffffffffffffff1673ffffffffffffffffffffffffffffffffffffffff16815260200190815260200160002060008373ffffffffffffffffffffffffffffffffffffffff1673ffffffffffffffffffffffffffffffffffffffff16815260200190815260200160002054905092915050565b600033905090565b600073ffffffffffffffffffffffffffffffffffffffff168373ffffffffffffffffffffffffffffffffffffffff161415610bc8576040517f08c379a0000000000000000000000000000000000000000000000000000000008152600401610bbf90611855565b60405180910390fd5b600073ffffffffffffffffffffffffffffffffffffffff168273ffffffffffffffffffffffffffffffffffffffff161415610c38576040517f08c379a0000000000000000000000000000000000000000000000000000000008152600401610c2f906117b5565b60405180910390fd5b80600160008573ffffffffffffffffffffffffffffffffffffffff1673ffffffffffffffffffffffffffffffffffffffff16815260200190815260200160002060008473ffffffffffffffffffffffffffffffffffffffff1673ffffffffffffffffffffffffffffffffffffffff168152602001908152602001600020819055508173ffffffffffffffffffffffffffffffffffffffff168373ffffffffffffffffffffffffffffffffffffffff167f8c5be1e5ebec7d5bd14f71427d1e84f3dd0314c0f7b2291e5b200ac8c7c3b92583604051610d1691906118b5565b60405180910390a3505050565b600073ffffffffffffffffffffffffffffffffffffffff168373ffffffffffffffffffffffffffffffffffffffff161415610d93576040517f08c379a0000000000000000000000000000000000000000000000000000000008152600401610d8a90611835565b60405180910390fd5b600073ffffffffffffffffffffffffffffffffffffffff168273ffffffffffffffffffffffffffffffffffffffff161415610e03576040517f08c379a0000000000000000000000000000000000000000000000000000000008152600401610dfa90611775565b60405180910390fd5b610e0e8383836112db565b60008060008573ffffffffffffffffffffffffffffffffffffffff1673ffffffffffffffffffffffffffffffffffffffff16815260200190815260200160002054905081811015610e94576040517f08c379a0000000000000000000000000000000000000000000000000000000008152600401610e8b906117d5565b60405180910390fd5b8181036000808673ffffffffffffffffffffffffffffffffffffffff1673ffffffffffffffffffffffffffffffffffffffff16815260200190815260200160002081905550816000808573ffffffffffffffffffffffffffffffffffffffff1673ffffffffffffffffffffffffffffffffffffffff1681526020019081526020016000206000828254610f279190611907565b925050819055508273ffffffffffffffffffffffffffffffffffffffff168473ffffffffffffffffffffffffffffffffffffffff167fddf252ad1be2c89b69c2b068fc378daa952ba7f163c4a11628f55a4df523b3ef84604051610f8b91906118b5565b60405180910390a3610f9e8484846112e0565b50505050565b600073ffffffffffffffffffffffffffffffffffffffff168273ffffffffffffffffffffffffffffffffffffffff161415611014576040517f08c379a000000000000000000000000000000000000000000000000000000000815260040161100b90611815565b60405180910390fd5b611020826000836112db565b60008060008473ffffffffffffffffffffffffffffffffffffffff1673ffffffffffffffffffffffffffffffffffffffff168152602001908152602001600020549050818110156110a6576040517f08c379a000000000000000000000000000000000000000000000000000000000815260040161109d90611795565b60405180910390fd5b8181036000808573ffffffffffffffffffffffffffffffffffffffff1673ffffffffffffffffffffffffffffffffffffffff1681526020019081526020016000208190555081600260008282546110fd91906119e8565b92505081905550600073ffffffffffffffffffffffffffffffffffffffff168373ffffffffffffffffffffffffffffffffffffffff167fddf252ad1be2c89b69c2b068fc378daa952ba7f163c4a11628f55a4df523b3ef8460405161116291906118b5565b60405180910390a3611176836000846112e0565b505050565b600073ffffffffffffffffffffffffffffffffffffffff168273ffffffffffffffffffffffffffffffffffffffff1614156111eb576040517f08c379a00000000000000000000000000000000000000000000000000000000081526004016111e290611895565b60405180910390fd5b6111f7600083836112db565b80600260008282546112099190611907565b92505081905550806000808473ffffffffffffffffffffffffffffffffffffffff1673ffffffffffffffffffffffffffffffffffffffff168152602001908152602001600020600082825461125e9190611907565b925050819055508173ffffffffffffffffffffffffffffffffffffffff16600073ffffffffffffffffffffffffffffffffffffffff167fddf252ad1be2c89b69c2b068fc378daa952ba7f163c4a11628f55a4df523b3ef836040516112c391906118b5565b60405180910390a36112d7600083836112e0565b5050565b505050565b505050565b6000813590506112f481611e8d565b92915050565b60008151905061130981611ea4565b92915050565b60008135905061131e81611ebb565b92915050565b60008151905061133381611ebb565b92915050565b60006020828403121561134f5761134e611b87565b5b600061135d848285016112e5565b91505092915050565b6000806040838503121561137d5761137c611b87565b5b600061138b858286016112e5565b925050602061139c858286016112e5565b9150509250929050565b6000806000606084860312156113bf576113be611b87565b5b60006113cd868287016112e5565b93505060206113de868287016112e5565b92505060406113ef8682870161130f565b9150509250925092565b600080604083850312156114105761140f611b87565b5b600061141e858286016112e5565b925050602061142f8582860161130f565b9150509250929050565b60006020828403121561144f5761144e611b87565b5b600061145d848285016112fa565b91505092915050565b60006020828403121561147c5761147b611b87565b5b600061148a8482850161130f565b91505092915050565b6000602082840312156114a9576114a8611b87565b5b60006114b784828501611324565b91505092915050565b6114c981611a1c565b82525050565b6114d881611a2e565b82525050565b6114e781611a71565b82525050565b60006114f8826118eb565b61150281856118f6565b9350611512818560208601611a95565b61151b81611b8c565b840191505092915050565b60006115336023836118f6565b915061153e82611b9d565b604082019050919050565b60006115566022836118f6565b915061156182611bec565b604082019050919050565b60006115796022836118f6565b915061158482611c3b565b604082019050919050565b600061159c6026836118f6565b91506115a782611c8a565b604082019050919050565b60006115bf6028836118f6565b91506115ca82611cd9565b604082019050919050565b60006115e26021836118f6565b91506115ed82611d28565b604082019050919050565b60006116056025836118f6565b915061161082611d77565b604082019050919050565b60006116286024836118f6565b915061163382611dc6565b604082019050919050565b600061164b6025836118f6565b915061165682611e15565b604082019050919050565b600061166e601f836118f6565b915061167982611e64565b602082019050919050565b61168d81611a5a565b82525050565b61169c81611a64565b82525050565b60006020820190506116b760008301846114c0565b92915050565b60006060820190506116d260008301866114c0565b6116df60208301856114c0565b6116ec6040830184611684565b949350505050565b600060408201905061170960008301856114c0565b6117166020830184611684565b9392505050565b600060208201905061173260008301846114cf565b92915050565b600060208201905061174d60008301846114de565b92915050565b6000602082019050818103600083015261176d81846114ed565b905092915050565b6000602082019050818103600083015261178e81611526565b9050919050565b600060208201905081810360008301526117ae81611549565b9050919050565b600060208201905081810360008301526117ce8161156c565b9050919050565b600060208201905081810360008301526117ee8161158f565b9050919050565b6000602082019050818103600083015261180e816115b2565b9050919050565b6000602082019050818103600083015261182e816115d5565b9050919050565b6000602082019050818103600083015261184e816115f8565b9050919050565b6000602082019050818103600083015261186e8161161b565b9050919050565b6000602082019050818103600083015261188e8161163e565b9050919050565b600060208201905081810360008301526118ae81611661565b9050919050565b60006020820190506118ca6000830184611684565b92915050565b60006020820190506118e56000830184611693565b92915050565b600081519050919050565b600082825260208201905092915050565b600061191282611a5a565b915061191d83611a5a565b9250827fffffffffffffffffffffffffffffffffffffffffffffffffffffffffffffffff0382111561195257611951611afa565b5b828201905092915050565b600061196882611a5a565b915061197383611a5a565b92508261198357611982611b29565b5b828204905092915050565b600061199982611a5a565b91506119a483611a5a565b9250817fffffffffffffffffffffffffffffffffffffffffffffffffffffffffffffffff04831182151516156119dd576119dc611afa565b5b828202905092915050565b60006119f382611a5a565b91506119fe83611a5a565b925082821015611a1157611a10611afa565b5b828203905092915050565b6000611a2782611a3a565b9050919050565b60008115159050919050565b600073ffffffffffffffffffffffffffffffffffffffff82169050919050565b6000819050919050565b600060ff82169050919050565b6000611a7c82611a83565b9050919050565b6000611a8e82611a3a565b9050919050565b60005b83811015611ab3578082015181840152602081019050611a98565b83811115611ac2576000848401525b50505050565b60006002820490506001821680611ae057607f821691505b60208210811415611af457611af3611b58565b5b50919050565b7f4e487b7100000000000000000000000000000000000000000000000000000000600052601160045260246000fd5b7f4e487b7100000000000000000000000000000000000000000000000000000000600052601260045260246000fd5b7f4e487b7100000000000000000000000000000000000000000000000000000000600052602260045260246000fd5b600080fd5b6000601f19601f8301169050919050565b7f45524332303a207472616e7366657220746f20746865207a65726f206164647260008201527f6573730000000000000000000000000000000000000000000000000000000000602082015250565b7f45524332303a206275726e20616d6f756e7420657863656564732062616c616e60008201527f6365000000000000000000000000000000000000000000000000000000000000602082015250565b7f45524332303a20617070726f766520746f20746865207a65726f20616464726560008201527f7373000000000000000000000000000000000000000000000000000000000000602082015250565b7f45524332303a207472616e7366657220616d6f756e742065786365656473206260008201527f616c616e63650000000000000000000000000000000000000000000000000000602082015250565b7f45524332303a207472616e7366657220616d6f756e742065786365656473206160008201527f6c6c6f77616e6365000000000000000000000000000000000000000000000000602082015250565b7f45524332303a206275726e2066726f6d20746865207a65726f2061646472657360008201527f7300000000000000000000000000000000000000000000000000000000000000602082015250565b7f45524332303a207472616e736665722066726f6d20746865207a65726f20616460008201527f6472657373000000000000000000000000000000000000000000000000000000602082015250565b7f45524332303a20617070726f76652066726f6d20746865207a65726f2061646460008201527f7265737300000000000000000000000000000000000000000000000000000000602082015250565b7f45524332303a2064656372656173656420616c6c6f77616e63652062656c6f7760008201527f207a65726f000000000000000000000000000000000000000000000000000000602082015250565b7f45524332303a206d696e7420746f20746865207a65726f206164647265737300600082015250565b611e9681611a1c565b8114611ea157600080fd5b50565b611ead81611a2e565b8114611eb857600080fd5b50565b611ec481611a5a565b8114611ecf57600080fd5b5056fea264697066735822122027c479c469a18649e76f9c711f2decd2c3931c929da14bf9bacee8c1c399adc064736f6c63430008060033",
  "linkReferences": {},
  "deployedLinkReferences": {}
}